:020000040800F2
:10000000005000209D0A0008CD0A0008CF0A000811
:10001000D10A0008D30A0008D50A00080000000031
:10002000000000000000000000000000D70A0008E7
:10003000D90A000800000000DB0A0008DD0A0008F9
:10004000DF0A0008DF0A0008DF0A0008DF0A0008EC
:10005000DF0A0008DF0A0008DF0A0008DF0A0008DC
:10006000DF0A0008DF0A0008DF0A0008DF0A0008CC
:10007000DF0A0008DF0A0008DF0A0008DF0A0008BC
:10008000DF0A0008DF0A0008DF0A0008DF0A0008AC
:10009000DF0A0008DF0A0008DF0A0008DF0A00089C
:1000A000DF0A0008DF0A0008DF0A0008DF0A00088C
:1000B000DF0A0008DF0A0008DF0A0008DF0A00087C
:1000C000DF0A0008DF0A0008DF0A0008DF0A00086C
:1000D000DF0A0008DF0A0008DF0A0008DF0A00085C
:1000E000DF0A0008DF0A0008DF0A000810B5054C27
:1000F000237833B9044B13B10448AFF300800123D4
:10010000237010BD9C010020000000004871000811
:10011000084B10B51BB108480849AFF300800848E8
:10012000036803B910BD074B002BFBD0BDE810409E
:10013000184700BF0000000048710008A00100201F
:100140009801002000000000154B002B08BF134B46
:100150009D46A3F5803A00218B460F461348144A6A
:10016000121A04F0E4FC0F4B002B00D098470E4B02
:10017000002B00D098470020002104000D000D48FE
:10018000002802D00C48AFF3008004F025FC2000CA
:10019000290000F029FA04F03DF900BF0000080032
:1001A0000050002000000000000000009C01002022
:1001B000A00A00200000000000000000064B002202
:1001C00001281A701A7005D0042802D105221A706D
:1001D000704770471870704720100240014B18603C
:1001E000704700BF80044242024B1A6A10431862F3
:1001F000704700BF00100240014B1860704700BFFD
:100200003C0442421F4930B44B6803F00C03042BFA
:1002100001D0082B20D01C4A02601A4B1B495D6894
:100220001B4CC5F303154D5DEA4042605D68C5F3A4
:1002300002254D5D22FA05F585605D68C5F3C2258E
:10024000495DCA40C2605B68C3F38133E35C30BC84
:10025000B2FBF3F2026170474A684B68C2F3834213
:10026000DC0302F1020207D54B689B0304D4064B62
:1002700003FB02F20260D0E7064B03FB02F20260CE
:10028000CBE700BF0010024000127A00F40000200B
:10029000F000002000093D00044B9A6919B922EAD8
:1002A0000000986170471043986170470010024049
:1002B000044BDA6919B922EA0000D861704710438B
:1002C000D861704700100240014B1860704700BFB2
:1002D000400442424309012B0BD0022B094B00F092
:1002E0001F000CBF1B6A5B6A23FA00F000F00100DC
:1002F0007047044B00F01F001B6823FA00F000F069
:100300000100704700100240036870B51B690021AE
:10031000012204469847431C05460ED02368204618
:100320001B690021022298472368064629461B695B
:10033000204600229847304670BD70BD084A094BE0
:1003400010B4026003F58071002453F8042B82423C
:1003500008BF43F8044C8B42F7D15DF8044B70475B
:1003600098650008B80100200A4A0B4B10B503F548
:10037000807104460260002053F8042B944208BFA9
:1003800043F8040C8B42F7D1204603F018FD2046B9
:1003900010BD00BF98650008B80100200248022186
:1003A000032202F0C9BB00BF800A0020F0B50E4650
:1003B00085B03549054605F0B0FA20B9334B1B68C6
:1003C00063B105B0F0BD2846314905F0A6FA78B909
:1003D0002E4B1B6843B1012005B0F0BD0190FFF723
:1003E000DDFF019805B0F0BDFFF7D8FF0120E8E779
:1003F0002846284905F091FA10B3274B002402E063
:100400000134402C21D053F8040F0028F8D12B7868
:100410003A2B32D0294602A802F0B8FC02A802F01A
:1004200007FD90B102A802F0EBFC88B102A802F02F
:10043000F1FC03464BB1194AE01C42F82430C0E7F6
:10044000124B1B68ABB10220BBE74FF0FF30B8E79F
:1004500002A802F0C9FC05460028F6D0036802A8ED
:100460009F6802F0BFFC324601462846B847034663
:10047000E0E7FFF793FF0220A3E72846084902AA16
:1004800005F0CEF9029BD5E7786500083C0A00200C
:100490008865000880650008B4010020B8010020CC
:1004A000C0650008022808B50BDD084BC21E53F8D2
:1004B0002200002143F8221028B103685B689847A6
:1004C00008BD002008BD4FF0FF3008BDB801002076
:1004D000022870B50C4616460FDC0E4B1B680BB994
:1004E000FFF75CFFA51936B114F8011B0A4802F0AA
:1004F000BBFBAC42F8D1304670BD084B033853F813
:10050000200018B103681B68984770BD4FF0FF309A
:1005100070BD00BF3C0A0020800A0020B801002006
:10052000022810B50C4609DC0D4B1B688BB10D4839
:1005300002F08AFB01232070184610BD0A4B0338D5
:1005400053F8200040B103689B689847034618465B
:1005500010BDFFF723FFEAE74FF0FF33ECE700BFE2
:100560003C0A0020800A0020B8010020022808B5BB
:1005700008DD074B033853F8200028B10368DB6817
:10058000984708BD012008BD4FF0FF3008BD00BFEF
:10059000B8010020022808B508DD074B033853F8DE
:1005A000200028B103681B69984708BD002008BDDA
:1005B0004FF0FF3008BD00BFB8010020022808B589
:1005C00004D84FF400534B60002008BD03F01CFF1B
:1005D000092303604FF0FF3008BD00BF08B50120BC
:1005E00003F018FF704700BF08B500F0DBF9FFF714
:1005F000F9FFBDE8084000F0FDBE00BF074A1368E0
:100600001844EFF30881884202D210601846704700
:10061000034B0C221A604FF0FF307047040100209A
:100620009C0A0020074C08B523680546986804F02A
:100630000DF82368D86804F009F805B9FEE700F062
:100640007DF9FBE784010020002104F0BEBF00BF5C
:10065000294A0388904270B49BB212D002F500621E
:1006600090420ED0B0F1804F0BD0A2F5983290425C
:1006700007D002F58062904203D002F5806290427A
:1006800003D14A8823F0700313431C4A90422AD0B6
:1006900002F58062904226D0CE8823F440738D8884
:1006A0000C889BB202F58C323343904203808585DF
:1006B000048512D0124B98420FD003F54063984244
:1006C0000BD003F58063984207D003F5806398420E
:1006D00003D070BC0123838270470B7A70BC038601
:1006E00001238382704703808B8870BC83850B88CD
:1006F0000385012383827047002C014000100040D5
:100700000034014000234FF6FF7282800380C380D3
:1007100043800372704700BF038829B923F00103A7
:100720001B041B0C038070479BB243F00103038042
:10073000704700BF83899BB21AB923EA0101818106
:10074000704719438181704781867047038A828987
:1007500011EA030092B203D011420CBF0020012025
:10076000704700BFC94389B201827047074B198B9C
:10077000988B1A8B89B292B2914280B21DBF988B2E
:1007800080B240EA024040EA014070470028004041
:10079000084B020C998880B289B241F0100199800F
:1007A0001A8398839A8822F010021204120C9A80FD
:1007B000704700BF00280040084BC0F303429988EF
:1007C00080B289B241F0100199801A8198819A888B
:1007D00022F010021204120C9A8070470028004088
:1007E000024A93889B06FCD5704700BF0028004052
:1007F00005498B880A4623F008031B041B0C8B80D9
:1008000093881B07FCD57047002800402DE9F003B2
:10081000CD78EB0648BF8B78098805F00F0748BFF5
:100820001F4311F0FF0F23D0D0F800C00023012692
:100830004FF00F0802E00133082B17D006FA03F23D
:1008400002EA01049442F6D19A0008FA02F907FA82
:1008500002F22CEA090C282D4CEA020C35D0482D66
:1008600003F1010308BF0461082BE7D1C0F800C001
:10087000FF2925D9D0F804C0002301264FF00F0826
:1008800002E00133082B19D003F1080206FA02F244
:1008900002EA01049442F4D19A0008FA02F907FA34
:1008A00002F22CEA090C282D4CEA020C0BD0482D40
:1008B00003F1010308BF0461082BE5D1C0F804C0AF
:1008C000BDE8F00370474461DBE74461B3E700BF74
:1008D0000028194B00F44012B4BFDB695B68B2F525
:1008E000401F30B484B21FD0C20214D5C0F30342FB
:1008F000032505FA02F223EA020343F0706319B1FB
:10090000420D1201944023430B4A0028B4BFD36127
:10091000536030BC7047420D120104FA02F223EA20
:10092000020343F07063EAE7034A23F070635568FB
:1009300025F070655560E2E70000014008B572B629
:10094000962002F0CDFD962002F0CAFDF8E700BF28
:10095000014B1860704700BF20000E420F4A30B4B0
:10096000936894681A46B4F1006F04D030BC10301C
:1009700042F8201070470A4A03F1EC0553F8044B83
:10098000AB4242F8044FF9D1044B4FF00052103003
:100990009A6030BC42F82010704700BF00ED00E0C4
:1009A000FCFFFF1F00F0E0B8038ACA889BB223F463
:1009B0004053134330B50382828904460B898888EB
:1009C0000D4692B24989034322F4B0520B4322F000
:1009D0000C0213439BB2A381A38AAA899BB223F47E
:1009E000407387B01343A38201A8FFF70BFCA189D2
:1009F000049A1A48039B09B2844208BF13462A6826
:100A0000002903EB8303B4BF5200920003EB83037E
:100A10001349B3FBF2F3A1FB0352A089520900B2C0
:100A20006425002802FB15334FEA02120ADB1B0182
:100A30003233A1FB0351C1F343110A4392B2228125
:100A400007B030BDDB003233A1FB0301C1F342111B
:100A50000A4392B2228107B030BD00BF0038014086
:100A60001F85EB51838929B923F400531B041B0C08
:100A7000838170479BB243F400538381704700BF6A
:100A8000C1F30801818070478088C0F30800704777
:100A9000038819420CBF0020012070470649074A0D
:100AA000074B9A42BEBF51F8040B42F8040BF8E71B
:100AB00004488047044800477C710008EC0000208F
:100AC0009C010020210D000849010008FEE7FEE717
:100AD000FEE7FEE7FEE7FEE7FEE7FEE7FEE7FEE7EE
:100AE00008B50120FFF7F0FBBDE808400020FFF744
:100AF000EBBB00BFF0B40B884C888A881C43CB88C2
:100B000014430A891C434B898F8922430588CE8967
:100B10001A433A43324305F4415313439BB20380D3
:100B2000838B0A8A23F400631B041B0C8383F0BCB1
:100B300002827047038829B923F040031B041B0C71
:100B4000038070479BB243F040030380704700BFAF
:100B500081817047808980B2704700BF0389194244
:100B60000CBF002001207047114B5A6802F00C02A4
:100B7000082A0ED15A685968C2F38342C90302F1A8
:100B8000020211D55B689B030ED40A4B03FB02F2F1
:100B900000E0084A064B08485968084BC1F30311A6
:100BA000415CCA401A607047054B03FB02F2F1E753
:100BB0000010024000127A000801002018010020F5
:100BC00000093D0000222E4B82B0009201921A686B
:100BD00022F480321A601A6800284DD042F4802234
:100BE0001A60274B19681A4641F48031196003E0F6
:100BF000009BB3F5A06F09D0136803F40033019391
:100C0000009B01330093019B002BF1D01C4B186813
:100C100010F400302ED01B4A1946106840F0100026
:100C20001060106820F007001060106840F00200AB
:100C300010605A6822F47C125A605A6842F4E81232
:100C400042F480625A601A6842F080721A600B683F
:100C50000B4A9B01FBD55368114623F003035360F5
:100C6000536843F0020353604B6803F00C03082BF6
:100C7000FAD1012002B0704722F480221A60B0E756
:100C800000100240002002401B4A002382B0019362
:100C9000116803F1804341F010011160106803F501
:100CA000043320F0070010601068194640F002007D
:100CB00010605A6822F47C125A605A6842F460123A
:100CC00042F480625A601A6842F080721A600B68BF
:100CD0000A4A9B01FBD55368114623F00303536076
:100CE000536843F0020353604B6803F00C03082B76
:100CF000FAD1012002B070470020024000100240EB
:100D000008B50120FFF75EFF00B108BDFFF75AFFED
:100D10000028FAD1FFF7B8FF0028F6D1FEE700BFA0
:100D2000114B10B41868114A40F00100186058685F
:100D30000F4902405A601A684FF41F0422F084726F
:100D400022F480321A601A684FF0006022F4802288
:100D50001A605A6822F4FE025A609C6088605DF84E
:100D6000044BFFF7CDBF00BF001002400000FFF8AA
:100D700000ED00E0014B1868704700BFB80200208A
:100D8000704710B5044640B30368DA68D20702D54D
:100D9000DB689B0721D4637B03F0FF021BB922733E
:100DA0002046FFF7EDFF45F2555202236373236897
:100DB00000201A6021684B6823F007026368134320
:100DC0004B602168A2688B6823F47F6323F00F03D4
:100DD00013438B600123637310BD012010BD037B9F
:100DE000012B4FF002030CD04CF6CC424373036846
:100DF0001A604AF6AA2203681A600123437300238B
:100E000003731846704738B5037B0446012B4FF037
:100E100002001BD0012323736073FFF7ABFF05466D
:100E20002368D86810F002000AD0FFF7A3FF401B28
:100E3000B0F57A7FF4D9032000236073237338BDA3
:100E40004AF6AA221A6001236373207338BD7047E3
:100E50007047000038B590F90030044601330D4664
:100E600004D106480649352202F062F963680DB1E3
:100E7000E26800E02269136038BD00BFD465000855
:100E8000EC65000810B590F900300446013304D138
:100E9000064807493F2202F04BF9A3681A686368C5
:100EA0001A4214BF0120002010BD00BFD465000805
:100EB000EC65000810B50446103001F0E2FD204654
:100EC00001F0CCFB204610BD10B50446044B036076
:100ED00002F03EF8204602F059F9204610BD00BF4E
:100EE000C86A000810B5044602F069FF204610BD2C
:100EF00010B50446064B5C3003F1180240F85C3C28
:100F00004C330260436002F077F8204610BD00BF0A
:100F1000686A0008A0F15C00FFF7EABFA0F160007A
:100F2000FFF7E6BF38B504460D461422002103F052
:100F3000FEFD2046294602F085FA204638BD38B528
:100F400004460D461422002103F0F1FD20462946F7
:100F500002F08AFA204638BD10B5044602F02FFF91
:100F6000204610BD10B50446FFF7AEFF204602F044
:100F700026FF204610BD000084462DE9F04F8B4629
:100F8000924699468BB061464448CDF824C0DDF8BE
:100F90005080159F169E179DFFF75CFF59464048ED
:100FA000FFF758FF51463F48FFF754FF49463E4878
:100FB000FFF750FF41463D48FFF74CFF39463C489C
:100FC000FFF748FF31463B48FFF744FF29463A48C0
:100FD000FFF740FFDDF824C0384C1CF1000C18BFAF
:100FE0004FF0010C1BF1000B18BF4FF0010B1AF171
:100FF000000A18BF4FF0010A19F1000918BF4FF09D
:10100000010918F1000818BF4FF00108003718BF98
:101010000127003618BF0126003518BF0125E571EC
:1010200084F800C084F801B084F802A084F803902A
:1010300084F804806771A671002518482844FFF7DA
:1010400021FF28B31E4800F067FB6178024600913B
:10105000A17823780191E1781A48029121790391CE
:1010600061790491A1790591E1790691164904F01D
:10107000B3FB1449154802F005F8124804F057FC78
:101080000246104912480BB0BDE8F04F00F076BCA4
:101090001435A02DD1D10BB0BDE8F08FBC020020DB
:1010A000D0020020E4020020F80200200C030020FF
:1010B0002003002034030020480300205C030020AC
:1010C0006403002020080020676600085C040020FC
:1010D000FC0700202DE9FF4107460446C51D461DBB
:1010E000384604F024FCE31B83427CD22378A046DC
:1010F000442B23D163784F2B20D1A3784F2B1DD1C4
:10110000E378522B1AD123793A2B17D1637A3078AE
:10111000303B71782A7895F801E00093A37A303853
:10112000303B0193E37A3039303B0293237B303AF2
:10113000303B0393AEF13003FFF71EFF2378442BBF
:1011400021D163784F2B1ED1A3784F2B1BD1E3788D
:10115000522B18D123793A2B15D133784C2B12D13D
:1011600073784F2B0FD12B78432B0CD16B784B2BF3
:1011700009D101200090019002900390014602469F
:101180000346FFF7F9FE98F800300134442B27D1CD
:1011900023784F2B24D163784F2B21D1A378522B66
:1011A0001ED1E3783A2B1BD13378552B18D17378A5
:1011B0004E2B15D12B784C2B12D16B784F2B0FD196
:1011C000237A432B0CD1637A6B2B09D1002000903A
:1011D000019002900390014602460346FFF7CCFEC1
:1011E000013501367CE704B0BDE8F08170B50F4DE4
:1011F000012415F8016F3EB90D48142303FB0400C8
:101200001438FFF73FFE18B90134092CF1D170BD35
:1012100008480C2303FB04002E700C3801F0F6FF85
:1012200005492246054801F02DFFEDE75B0300204C
:101230005C070020A4040020826600085C040020F3
:1012400038B501250F4C0C2303FB05440C3C20460C
:1012500001F0F4FF0C4903F083F878B1204601F067
:10126000DFFF204602F010F8084B01222B4403F860
:10127000012C074807492A4601F004FF0135092DD2
:10128000E0D138BDA40400200000A0405C03002091
:101290005C0400209F66000830B50B4C85B0FFF75A
:1012A000A5FFFFF7CDFF257920786178A278E37854
:1012B000009565790195A5790295E4790394FFF786
:1012C0005BFE05B030BD00BF5C03002040F60203AA
:1012D00003480449062280E80E00FFF752BD00BF14
:1012E00018050020003000400148FFF778BD00BF1E
:1012F0001805002010B5064C0648FFF784FD20466F
:10130000FFF7C0FD2046BDE81040FFF7BBBD00BFA2
:10131000200A00201805002030B585B0FFF7EAFF4D
:10132000294B2A4918689B8802902948ADF80C304F
:1013300001F0A8FE4FF07E5002F0C6F8254802A941
:1013400000F0DDF9244C206040B9224800F0E4F9B7
:10135000224902461E4801F095FE03E01C48204940
:1013600001F090FE42F20F731E491F4A184801F027
:1013700089FE184800F04AFA2060FFF7BBFF236897
:101380001348CBB9194901F07DFE4FF07C5002F0B3
:101390009BF8104800F068FA05460E4800F07EFA07
:1013A00004460C4800F094FA114900902A4623465E
:1013B000074801F067FE02E0094901F063FEFFF70C
:1013C00099FF05B030BD00BFCE650008C0660008BB
:1013D0005C0400206403002058050020E666000835
:1013E000FD6600082E6700085F670008696700084F
:1013F000846700087FB53F4D002401202146224626
:10140000234628600094019402940394FFF7B4FDEE
:10141000394802F059F8FFF759FFFFF765FFFFF76A
:1014200069FFFFF779FF35482146322201F008F9BC
:101430002E46334D32682B682E4C9A42DBDCFFF788
:1014400059FF3049304801F01DFE2C482F4942F227
:101450000F7200F061FA2E4B186070B92D492A48BE
:1014600001F010FE01232C482C49236001F07EFC82
:101470002B482C4901F078FD08E02B6822482A49C6
:10148000226801F0FFFD236801332360274CFFF73A
:10149000ADFEFFF7D5FE257920786178A278E37854
:1014A000009565790195A5790295E4790394FFF794
:1014B00063FD124800F05DFA0028BAD0FFF71AFF6A
:1014C0001B49114801F0DEFD0C481A494FF4007227
:1014D00000F072FA0028ACDB1749164A0A4801F0FE
:1014E000D1FD1448FFF7F6FDFFF780FEFFF7A8FED9
:1014F000DFE700BF1C01002000007041FC07002056
:10150000200100209C6700085C0400205F67000841
:1015100058050020C26700083C0500209912000809
:101520002805002020A10700E26700085C030020D6
:10153000126800085C0500202368000810B5044606
:10154000FFF7D6FC204602F03AFC204610BDA0F181
:101550005C00F3E7A0F16000F0E7000013B526217E
:101560004448FFF7ECFC27214348FFF7E8FC28211B
:101570004248FFF7E4FC29214148FFF7E0FC08213D
:101580004048FFF7DCFC0F213F48FFF7D8FC2A2139
:101590003E48FFF7D4FC2B213D48FFF7D0FC2C211F
:1015A0003C48FFF7BFFC32213B48FFF7BBFC13214F
:1015B0003A48FFF7B7FC14213948FFF7B3FC15216F
:1015C0003848FFF7AFFC16213748FFF7ABFC17216F
:1015D0003648FFF7A7FC18213548FFF7A3FC242164
:1015E0003448FFF7ACFC25213348FFF7A8FC4FF047
:1015F000FF3300931F211D231E22304801F01EFCE3
:101600002F49304A2D4802F0E5FB2C491C221023BB
:101610002D4800F06BF809210A2200232B4801F025
:1016200071FC2A482A49274A02F0D4FB00242948A1
:1016300020440C3401F0DEFD602CF8D1264C20460D
:1016400001F0BEFD2046254B002140F8143B01F07F
:1016500087FB23491B4A204602F0BCFB214800F0CF
:1016600051F920482049174A02B0BDE8104002F065
:10167000B1BB00BFBC020020D0020020E402002069
:10168000F80200200C030020200300203403002077
:10169000480300205C07002070070020840700201A
:1016A00098070020AC070020C0070020D4070020C6
:1016B000E8070020200A0020040500207404002010
:1016C000510E0008EC0000206403002000040020FC
:1016D000F10E0008A404002028050020C86A0008B4
:1016E000C90E0008FC070020B50E000810B504461E
:1016F00000F084FC002384F89830204610BD08B523
:10170000012303760023CA5CC2540133062BFAD1AD
:1017100000F04CFD002008BD10B5044688B006233B
:101720000093092106AB002200F0B8FC9DF81920B7
:10173000843400929DF81A209DF8183001929DF88B
:101740001B20204602929DF81C20142103929DF834
:101750001D200492024A04F00DF8204608B010BD86
:10176000D568000830B50D46ADF52D7D044601A8BD
:1017700001F078F901A8294601F0E8F8431C3DD0B2
:101780009DF80B309DF80A201B0443EA02639DF884
:101790000D2013439DF80C2043EA0223A3609DF81B
:1017A00013309DF812201B0443EA02639DF81520B4
:1017B00013439DF8142043EA022323619DF8173058
:1017C0009DF816201B0443EA02639DF81920134379
:1017D0009DF8182043EA0223E3609DF80F309DF83E
:1017E0000E201B0443EA02639DF8112013439DF869
:1017F000102043EA02236361002400E0044609A8A4
:1018000001F03FF920460DF52D7D30BD10B5037E6A
:1018100004463BB9204600F09BFC80F00100C0B2BA
:10182000404210BD43F69821FFF79CFF0028F1DAF3
:1018300010BD1FB504230093002203AB00F02EFC63
:101840009DF80C309DF80F208DF80F308DF80C208E
:101850009DF80D309DF80E208DF80E308DF80D207E
:10186000039805B05DF804FB1FB50F210446FFF790
:10187000E0FF0346C0F307420092C0F3072248345A
:101880000192C2B2029220461421034A1B0E03F0B9
:1018900071FF204604B010BDF36800081FB5052194
:1018A0000446FFF7C6FF0346C0F307420092C0F3A9
:1018B00007225C340192C2B2029220461421034AEC
:1018C0001B0E03F057FF204604B010BDF36800085C
:1018D0001FB501210446FFF7ACFF0346C0F30742E2
:1018E0000092C0F3072270340192C2B202922046E5
:1018F0001421034A1B0E03F03DFF204604B010BD27
:10190000F368000810B5044600F082FE04F11000F0
:1019100001F0B3F8204610BDF7B503680446002B6C
:101920000F46154608DB04F11006304639462A46B4
:1019300001F0A8F848B105E0C06800F09AFC002862
:101940002060F0DA4FF0FF3011E03046E76824689D
:1019500001F0BEF842F21073024600933846214669
:101960002B4600F0A6FC80F00100C0B2404203B05C
:10197000F0BD0346C068196800F06EBC70B504463F
:1019800023790E461546C06821680BB9A26801E0AC
:101990004FF0FF32002300F05CFD031E09DBAB4279
:1019A000E06821683246A8BF2B46BDE8704000F0D1
:1019B0007EBD4FF0FF3070BD70B5044623790E46F2
:1019C0001546C06821680BB9A26801E04FF0FF32EC
:1019D000002300F010FD031E09DBAB42E068216824
:1019E0003246A8BF2B46BDE8704000F0B4BD4FF0B2
:1019F000FF3070BD38B5064B456A044603602DB113
:101A0000284600F02BFE284602F0D9F9204638BDC2
:101A10001869000810B50446FFF7ECFF204602F0F5
:101A2000CEF9204610BD38B500250446456001209A
:101A300003F044F8206000B10570204638BD10B5B1
:101A40000446006808B103F041F8204610BD2DE9B6
:101A5000F047066804468A469146C6B1476807EBD8
:101A6000020808F1010003F029F8054678B1314673
:101A70003A4603F051F851464A46E81903F04CF84B
:101A8000002305F80830304603F020F82560BDE853
:101A9000F0870000F8B506460F4633687C1CDD5D14
:101AA000EDB105F0C002C02A09D1195D05F03F056E
:101AB000304641EA0521FFF7EDFFB81CF8BDB368D9
:101AC000371D23B1384607490122FFF7C0FF3168AF
:101AD000384621442A46FFF7BAFF6719DDE720465A
:101AE000F8BD00BF5D67000838B504460D46064BDB
:101AF00040F80C3B01F07EFB002384F82030636249
:101B0000E561204638BD00BF186900082DE9F043A3
:101B1000CF7885B017F00F0780460C4645D14B793A
:101B200091F804908E7943EA0929CB790C2543EA90
:101B3000062619F1FF3935D302A8FFF774FF2946AD
:101B400001A80194FFF7A6FF051D02A8FFF777FF84
:101B5000EFE702A8FFF767FF294601A80194FFF706
:101B600099FF00F10802A3185B78A55C225C43EAA8
:101B7000052523185B7800F10A0143EA0223012BB3
:101B80000D440CD16218D378615C43EA016351784B
:101B9000927843EA014343EA0223C8F8043002A8DA
:101BA000FFF74DFF16F1FF36D3D2384605B0BDE83A
:101BB000F08330B50446ADF5077D01A800F05DFF68
:101BC000606A01A906AA4FF4007300F02BF9051E04
:101BD00011DB06A804F10801022202F08DFF50B9C2
:101BE000204606A92A46FFF791FF08B9042300E022
:101BF000022384F8203001A800F043FF0DF5077D93
:101C000030BD00002DE9F0470E4688B004460021A3
:101C10000C2202A81D4602F08AFF284B02AA18686F
:101C200001238DF80A308DF80D30019003CA306021
:101C300010687160B06003F04DFC03126072237293
:101C4000238906A83380FFF7EEFE0C2405962B7837
:101C500033B328462E2103F052FE671C8146DDF87F
:101C600014A070B9284603F062FE80460AF804000A
:101C7000059829463844424602F04EFF07EB080417
:101C80000EE0C5EB00080AF80480059829463844A0
:101C9000424602F041FF09F1010507EB0804D6E7CF
:101CA000059B019800221A55631CF05006A8FFF707
:101CB000C6FE601D08B0BDE8F08700BFFF680008E1
:101CC00070B5436AC6B004460D4633B9102002F021
:101CD00065F8064600F070F86662606A00F072F817
:101CE000606A002140F2DC5200F0AAFC01A800F07A
:101CF000C4FE3522124901A800F0C4FE666A03F052
:101D0000E9FBC0F30E01304600F02CF906A92B4682
:101D100020464FF48072FFF775FF0C34034601A98B
:101D2000A06906AA00F0FBF8204601F0ADFA2046B3
:101D300001F06CFA01A800F0A4FE46B070BD00BF2F
:101D40000369000838B590F82030044633B9836140
:101D5000C169FFF7B5FF012384F8203004F10C05B9
:101D6000284601F07DFAB0F57A7F10DD284601F0B3
:101D700057FAA3690133012BA36101DD032304E0BA
:101D80002046E169FFF79CFF012384F8203038BD2D
:101D900010B504460023C16180F820302046FFF7CB
:101DA000D1FF2046FFF705FF94F820000128F5D069
:101DB000031F5842584110BD10B5044600F028FCDE
:101DC000204610BD10B503680446002B03DAC06836
:101DD00000F04FFA2060E0682168022200F0DBF991
:101DE00080F00100C0B2404210BD000030B5144682
:101DF0000D46137852788BB00092A27805A8019214
:101E0000E27811210292064A03F0B4FC2279637948
:101E1000284605A943EA022200F034FE0BB030BD8B
:101E2000F36800082DE9F34104461F4623798846EC
:101E30001646C06821680BB9A26801E04FF0FF3276
:101E4000082300F0D8FA051E02DA4FF0FF301AE03E
:101E5000082321686A46E06800F07DFB6A46204658
:101E60004146FFF7C3FF9DF806209DF80730083D67
:101E700043EA0223AB42E8D8BB42E6DCE0682168D3
:101E8000324600F068FB02B0BDE8F0811FB51C0AC5
:101E90008DF80D300223009303AB8DF80C4000F059
:101EA000CFF804B010BD2DE9FF47074608460E469F
:101EB00000F00EFE05463A68D7F80C9054010C3439
:101EC000E4B24FF00008284602F08BFA0DF10C0A3C
:101ED0000AF808002E21284603F011FD30B108F160
:101EE0000108B8F1040F00F10105ECD104232246EA
:101EF0000093484653460C2100F0A2F83046FD6896
:101F00003C6800F0E6FD62010C3283B210212846E5
:101F100002F0FC02FFF7BAFF04B0BDE8F0872DE93C
:101F2000F04104461D4623790F461646C0682168D5
:101F30000BB9A26801E04FF0FF326B1E00F089FA86
:101F400000280BDB20463946FFF7ADFFE06821682B
:101F500032462B46BDE8F04100F0A9BA4FF0FF3001
:101F6000BDE8F08138B503680446002B0D4609DB57
:101F7000226885B152010C32E068042102F0FC02B3
:101F8000ABB213E0C06800F074F900282060EFDA0B
:101F90004FF0FF3038BD0C4952010B680C32013351
:101FA000E0680B6002F0FC0204219BB2FFF76EFFB9
:101FB0002168E068022200F0EEF8E0682168012262
:101FC00000F068F9002038BD340A002038B590F9D7
:101FD0000030044601330D4604D106480649352237
:101FE00001F0A6F863680DB1E26800E022691360B1
:101FF00038BD00BFD4650008EC6500082DE9F0414C
:10200000044698460F4600F12006114604F13405B7
:102010003046FEF794FF41462846FEF790FF3046D3
:10202000E7610121FFF7D2FF28460121FFF7CEFF2C
:10203000024B20461C60BDE8F08100BF380A00203A
:102040002DE9F84304460D4691461F4600F120064F
:1020500030460021BDF82080FFF7B8FFE069290A6B
:1020600003681B689847E069E9B203683D461B684E
:102070009847E069494603681B689847EB1B43454E
:1020800006DAE06915F8011B03681B689847F5E755
:102090003046BDE8F8430121FFF798BF2DE9F8432A
:1020A00004460D4691461F4600F1200630460021A9
:1020B000BDF82080FFF78AFFE069290A03681B68E2
:1020C0009847E069E9B203683D461B689847E069B4
:1020D000494603681B689847EB1B434507DAE069EC
:1020E000002103681B68984705F8010BF4E73046A8
:1020F000BDE8F8430121FFF769BF70B50446042627
:102100000025204602F06DF92E210543204603F0FC
:10211000F6FB28B1013E4FEA052500F10104F0D19C
:10212000284670BD1FB5130E8DF80C308DF80F20AA
:10213000C2F30723C2F307428DF80D2004228DF865
:102140000E30009203ABFFF77BFF05B05DF804FB98
:1021500010B5044682680F21FFF7E4FF204622698C
:102160000121FFF7DFFF20460521E268FFF7DAFFD4
:10217000012010BD1FB5490104AC04F8043D01F174
:102180000C0301210091114603F0FC022346FFF7E6
:1021900057FF04B010BD002908B5134604DB002228
:1021A000FFF7E8FF012008BD002008BD37B5054650
:1021B00000F1340420460121FFF708FF20460021EA
:1021C000FFF704FF4FF4FA7001F072F92046012185
:1021D000FFF7FCFE4FF4C87001F082F9062300936C
:1021E0002846092104222B46FFF72AFF0024214616
:1021F00028461E220223FFF7BDFF214628461F2244
:1022000002230134FFF7B6FF082CF0D103B030BD34
:102210001FB549011C0A8DF80D3001F10C03022194
:102220000091114603F0FC0203AB8DF80C40FFF760
:1022300007FF04B010BD1FB5490101F108030121DA
:102240000091114603F0F80203ABFFF727FF9DF85A
:102250000C0005B05DF804FB08B50322FFF7EBFFA7
:10226000172804D0A0F11C035842584108BD012092
:1022700008BD38B505460024284621460322FFF74D
:10228000DAFF28B10134082CF6D14FF0FF3038BD09
:10229000204638BD38B51346012205460C46FFF7E7
:1022A00069FF284621460122FFF7C5FF0028F8D123
:1022B00038BD2DE9F04F0C1E87B0054690469A4672
:1022C00001DA002057E000220123FFF753FF2846E0
:1022D00021460122FFF7DEFF4FEA441909F10C09FC
:1022E0005FFA89F94FF0000B404602F07AF803AE2E
:1022F00006F80B002E21404603F001FB30B10BF134
:10230000010BBBF1040F00F10108EDD104272846B1
:102310000C214A4633460097FFF792FE21461022D1
:102320001FFA8AF32846FFF773FF03F0D3F86FEA2A
:1023300080436FEA934328469BB221463A46FFF713
:1023400067FF21463A462846FFF7A4FF304600F0D3
:1023500051FF304600F098FF304600F057FF284606
:102360002146FFF779FF30B9304600F079FF109B26
:102370009842F4DDA5E707B0BDE8F08F38B50C1E34
:1023800005461BDB0322FFF756FFC8B1284621464E
:102390000022FFF750FF012804D1284621460822D9
:1023A000FFF778FF284621461022FFF773FF2846E3
:1023B00021460222FF23FFF7DDFE01E0002038BDA9
:1023C000012038BD1FB5490101F108030221009128
:1023D000114603F0F80203ABFFF760FE9DF80C30E6
:1023E0009DF80D208DF80D308DF80C20BDF80C00F7
:1023F00005B05DF804FB2DE9FF410F1E06461546AA
:10240000984602DA4FF0FF3020E001A800F0F2FE1B
:1024100001A800F039FF01A800F0F8FE3946262295
:102420003046FFF7CFFF3946044626223046FFF7F5
:10243000C9FF8442F2D1444507DC6B1CEED001A8F1
:1024400000F00EFFA842E9DDDCE7204604B0BDE85D
:10245000F0812DE9FF410F1E06461546984602DA27
:102460004FF0FF3020E001A800F0C4FE01A800F00A
:102470000BFF01A800F0CAFE394620223046FFF7C4
:10248000A1FF3946044620223046FFF79BFF8442D5
:10249000F2D1444507DC6B1CEED001A800F0E0FE51
:1024A000A842E9DDDCE7204604B0BDE8F0812DE973
:1024B000F7430C1E054691461E4647DB2422FFF7D4
:1024C00081FF80466201B7B214322846414602F0CD
:1024D000FC024B460097FFF7B3FD08EB07032846C5
:1024E000214624229BB2FFF793FE28462146202254
:1024F000FFF7D0FE214628460222FFF79CFE00F09F
:102500001003804603F0FF0928462146C3B9032281
:10251000FFF791FE074610B1222806D0EAE72846C9
:102520002146FFF72BFF384612E018F0080FE1D0E4
:102530002846214602220823FFF71CFE484607E0F2
:1025400002221023FFF716FE304601E04FF0FF3065
:1025500003B0BDE8F0832DE9F7430E1E0746914610
:102560001C461DDB2822FFF72DFF80467201A5B215
:1025700018323846414602F0F8024B460095FFF704
:102580008DFD08EB05033846314628229BB2FFF744
:102590003FFE384631464022FFF77CFE204601E0F0
:1025A0004FF0FF3003B0BDE8F083000070B508467F
:1025B00094B00D461646FFF7A0FD0446C0F307434E
:1025C0000093C0F307230193C3B20293112105A81E
:1025D0000E4A230E03F0CEF805A8294603F09DF914
:1025E00010B9346001240EE000210AA8FFF77CFA3C
:1025F0000AA82946FFF7CCFB044608B10B9B3360C1
:102600000AA8FFF7F7F9204614B070BDF368000878
:102610004FF0FF3310B503600123037140F2DC5328
:102620008360054B04461B68C36013B9034800F080
:1026300095FD204610BD00BF380A00203069000813
:1026400001718260704708B50346C0681968FFF7DA
:1026500095FE80F00100C0B2404208BD10B50446AE
:10266000FFF7F1FF204610BD0B69F0B5C0F806304A
:102670004B6900F11607C0F816304FF0FF3601F134
:10268000F0031C78FF2C28D08D18AB4225D25D1C9E
:102690000CB3062C03F1020593F801E015D007D81E
:1026A000012C0ED0032C13D12B68C0F80E300FE094
:1026B000352C04D0362C0BD12B683B6008E09E787B
:1026C00006E02B68C0F8123002E02B68C0F80A3030
:1026D00005EB0E03D5E72B46D3E73046F0BDEF2AD6
:1026E00008B503460CDD0A78022A09D1081D042228
:1026F00003F1340102F000FAB0FA80F0400908BD9D
:10270000002008BD70B50C46631A93420ADAD0F86F
:10271000A43214F8015B5E1C0344C0F8A46283F881
:102720004C50F1E770BD10B5002909DDD0F8A43296
:1027300001395C1C0344C0F8A44283F84C20F3E741
:1027400010BD00002DE9F041274F04463D464FF0F3
:102750000008C0F8A48255F8040B86B001A9042231
:1027600001902046FFF7CEFF404600F059FE064696
:1027700002F0B0FE3044030E84F83430030C84F8C9
:102780003530030A84F8363084F8370004F1340118
:1027900020460422FFF7B6FF204614214246FFF7E9
:1027A000C2FF204621460622FFF7ACFF2046CA2181
:1027B0004246FFF7B8FF02AB1E460C371A462868A0
:1027C0006968083503C2BD421346F7D1286831460F
:1027D0001060AA8820469A800E22FFF793FFD4F853
:1027E000A40206B0BDE8F08169690008F0B5D0F830
:1027F000A452002B05F1010600EB0507C0F8A46206
:10280000044687F84C100BDD02353444C0F8A4525E
:1028100084F84C301146BDE8F0401A46FFF772BF0D
:10282000F0BD00002DE9F0412D4E0446354600274D
:10283000C0F8A47255F8120B86B0019001A9204689
:102840000422FFF75FFF204604F134010422FFF762
:1028500059FF04F116083A4620460C21FFF763FFA2
:10286000204641460422FFF74DFF3A462046042108
:10287000FFF759FF204621460622FFF743FF3A465D
:102880002046CA21FFF74FFF02AB1F461A361A46F1
:1028900028686968083503C2B5421346F7D128682D
:1028A000394610602A7920461A710D22FFF72AFF57
:1028B0002046A21D32210423FFF798FF204636212F
:1028C00042460423FFF792FFD4F8A432581CC4F800
:1028D000A4021C44FF2384F84C3006B0BDE8F0810C
:1028E0006969000870B5044686B001A804F14C057A
:1028F00000F0C3F8E06901A92A464FF41673FFF708
:1029000091FA061E1CDB204629463246FFF7E7FEF9
:10291000B0B1204629463246FFF7A6FE02280AD16A
:102920002046FFF77FFF04F1200103462A46E069B5
:10293000FFF7F5FA04E0052804BF012384F83830D6
:1029400001A800F09EF806B070BD00002DE9F0432C
:102950000446424B85B018688846C4F8A80200288F
:1029600077D006230921002200932346FFF796FB28
:1029700041F2873741F288331020B845D4BF47462B
:102980001F4601F00BFA0546FFF716FAE5612846E7
:1029900000252E46FFF716FAE069002140F2DC52CE
:1029A000FFF74EFE04AB042243F8045D0092D4F816
:1029B000A8020F21FFF744FB04F120094421E0693C
:1029C000FFF7D0FA48462649432200F05BF884F826
:1029D000385094F8383093BB012D05D0022D17D014
:1029E000002DF9D1A56428E02046FFF7ABFE04F1E5
:1029F0003C050346494604F14C02E069FFF78FFAB3
:102A0000284600F041FC284600F000FC0225E0E7E3
:102A10002046FFF767FF04F13C0000F021FCB842BC
:102A2000D7DD98FBF7F2A36C01339342A364A2BFF6
:102A3000012384F838304FF0FF360125C9E7E469F7
:102A40002CB12046FFF70AFE204601F0B8F93046C7
:102A500001E04FF0FF3005B0BDE8F083380A0020F8
:102A60008869000810B50446203000F006F804F12B
:102A70003C0000F0BFFB204610BD00220270026146
:102A80007047704730B5104B0446186887B015463C
:102A900010B94FF0FF3015E005AAFFF787FD0028B9
:102AA000F7D0059B2046C3F307420092C3F30722E9
:102AB0000192DAB202921021044A1B0E02F05AFE71
:102AC0002561002007B030BD380A0020F3680008F7
:102AD0007047006970470000F0B5056885B004468E
:102AE00000212846FDF7BEFF94F9196004F10800A3
:102AF000002701360FC8ADF80C700090ADF8041037
:102B0000ADF80620ADF8083011D094F91830013333
:102B10000CBF04230C23ADF80A3028466946FDF7A4
:102B200043FF28460121FDF79DFF05B0F0BD0823B6
:102B3000ADF80A30F1E700BFF8B504460E46084686
:102B40003149154600F0DCFB30490746284600F0C5
:102B5000D7FB0146384600F0C1FB431C20602CD057
:102B60002B4A0346934231D02A4A934239D02A4A0B
:102B7000934241D03046244900F08EFB2846234939
:102B800000F08AFB00234FF41652A260E360236139
:102B90006361267665762046FFF79EFF1D4A23680F
:102BA000934200D0F8BD1D4B214601241C601C48F7
:102BB0001C22BDE8F84001F0AFBF532219481A4962
:102BC00000F0B6FA2368124A9342CDD14FF4804008
:102BD0000121FDF761FB0022236862600D4A9342E8
:102BE000C5D14FF400300121FDF762FB01222368BB
:102BF0006260094A9342BDD14FF480200121FDF764
:102C000057FB02236360B5E7EC6C0008A46C000876
:102C10000038014000440040004800403C0A0020C9
:102C2000800A002098690008B469000810B4044BB9
:102C300044680448196040F824205DF8044B70474C
:102C40004C0A0020400A002038B5044600680546BA
:102C500000E020682021FDF71BFF0028F9D028465E
:102C6000FDF712FF38BD00BF70B5044600680D4681
:102C7000064600E020688021FDF70AFF0028F9D011
:102C80003046A9B2BDE87040FDF7FABE094A836834
:102C9000026053B1084B1A68824201D106E01A461D
:102CA00053688342FBD143685360704742681A609F
:102CB000704700BF306A0008500A00200C4A836841
:102CC00010B50446026053B10A4B1A68904201D114
:102CD0000AE01A4653689C42FBD163685360204661
:102CE00001F06DF8204610BD42681A60F7E700BF9A
:102CF000306A0008500A0020074B10B40024027309
:102D0000816080E8180019B1044B1A6818604260AD
:102D10005DF8044B704700BF306A0008500A00207D
:102D20000D4B70B51C6806460D4614B912E0646878
:102D300084B1A36831462A461846002BF7D002F02A
:102D4000FEFD0028F3D1A06802F0F1FDA842EED10B
:102D5000204670BD002070BD500A0020007B7047E7
:102D6000002280E806008261704700BF002380E8EF
:102D70000A00704708B5036801460BB1984708BDC3
:102D8000406810B18B690831984708BD38B50023F9
:102D9000036043600A7804462F2A01D0204638BDDC
:102DA0004A78002AFAD0481C20604A782F2A14D08A
:102DB000B2B18D1C194600E052B125602A782B462D
:102DC0002F2A01F1010105F10105F5D1013323603D
:102DD000FFF7A6FF6060204638BD19460346F5E7B9
:102DE0001146F5E70068704710B50446406828B101
:102DF000FFF7B4FF012801D1606810BD002010BDAD
:102E0000406808B528B1FFF7A9FFD0F1010038BF2D
:102E1000002008BD10B50446406830B1FFF79EFFA2
:102E200018B9606808B1043810BD002010BD00BF9B
:102E30004068003018BF0120704700BFF0B5DFF8D0
:102E400064C004461648002583B04FF0080E261DC6
:102E50004FF0FF37C4F800C0C4F824E0E0626560BA
:102E60003046A560E56025616561A561E56184F88E
:102E7000205084F8215084F8225084F82350A56211
:102E8000009700F0EFFC30462B46616AA26A00F022
:102E900077FD3046E16A00F09DFD204603B0F0BDAD
:102EA00040420F00406A000870B5094D04462B6887
:102EB00083420BD0061D3046616AA26A002300F0EF
:102EC0005FFD3046E16A00F085FD2C6070BD00BFFB
:102ED000540A002038B50C460546FFF7E5FF281DCB
:102EE0002146BDE8384000F001BE00BF00F014B933
:102EF000A0F15C00FFF7FABF00F012B9A0F15C008E
:102F0000FFF7FABF38B504461D4600F0D9F8294648
:102F100004F15C0000F094F8054B204603F1080131
:102F200003F1200254332160E265236638BD00BFFF
:102F3000606A000810B5016943680446194400F04E
:102F400051F904F11400BDE81040FFF713BF00BFB2
:102F500010B5044600F04AF904F114000021BDE860
:102F60001040FFF703BF00BF38B50D46044600F020
:102F70003DF9256100F06EFE41192046BDE838405C
:102F800000F030B900207047F8B58E18B1420F46F6
:102F900005460FD00C4601E0A64209D02B68284612
:102FA0005B6A14F8011B98470130F5D1E01BF8BDAE
:102FB000F01BF8BD0020F8BDF8B58E18B1420F46E1
:102FC00005460FD00C4603E004F8010BA64207D0DB
:102FD0002B6828469B6A9847431CF5D1E01BF8BD37
:102FE000F01BF8BD0020F8BD00207047002070479E
:102FF000002070470020704710B5074B044603F1CE
:1030000008023C3380E80C00406901F069FA204670
:1030100000F080FE204610BDD86A0008A0F1040030
:10302000FFF7EABF10B50446FFF7E6FF204600F0C1
:10303000C6FE204610BD00BFA0F10400FFF7F2BF9E
:1030400010B584B0044600F095FE0B4B002203F14E
:1030500008013C3384E80A00626101A8224607495E
:1030600002F0BAFB064901A801F0EEFB6061FDF732
:10307000EBFA204604B010BDD86A0008C06500080D
:10308000206B00080EB430B582B005AB53F8045B7A
:1030900004464069019301F0D9FA29466069019A12
:1030A00001F018FF02B0BDE8304003B0704700BF28
:1030B000C1EBC10100EB81002030FFF75BBE00BF18
:1030C000F8B5134B0025044680E828000E468560BD
:1030D000C5600561456185610577457729462030E2
:1030E0001746FFF73DFE294604F13C00FFF738FE86
:1030F000251D4FF4165331463A46A3652846FFF77F
:103100001BFD284622460349FFF790FD2046F8BDE7
:10311000586A0008B13000080430FFF795BD00BFC1
:1031200010B504300C46FFF79FFD204610BD00BFD0
:1031300010B5084B0446186882B00B46C0680649B3
:103140000092224601F08AFB02B0BDE81040FDF774
:10315000F5BB00BF84010020246B00080FB400B54C
:10316000064A83B004AB126853F8041BD0681A46B1
:10317000019301F0AFFE012001F04CF98401002021
:1031800008B503689B68984708BD00BF10B5044A9E
:10319000044640F8042B00F01DF9204610BD00BF86
:1031A000606B000810B5054B044640F8043B00F086
:1031B00011F9204600F003FE204610BD606B0008A8
:1031C00010B5064A0023044680E80C008360C36003
:1031D000034800F0AFF8204610BD00BF606B000848
:1031E000813100080246043000F0D2B8043000F00B
:1031F000F1B800BF38B5002505604560856004461C
:1032000000F028FDA5606060204638BD036810B559
:10321000044623B900F01EFD01236060236010BD49
:1032200010B50446006818B100F014FD6368C01AB8
:10323000A36800221844A060226010BD38B504467F
:103240000068A56818B100F005FD6368C01A28443D
:1032500000F080FE014900F085FF38BD002474496C
:1032600038B504460068A56818B100F0F3FC63683F
:10327000C01A044B284483FB0023C017C0EBA310E3
:1032800038BD00BFD34D621010B5044600F0E2FC1B
:1032900000236060A36010BD431C10B5044619D024
:1032A00091F90030581C04D10FE011F90C3F5A1C61
:1032B0000BD09C42F9D12046896800F09BF920464A
:1032C0000021BDE8104000F0EBB90348BDE8104014
:1032D000FFF744BF10BD00BF706B0008884208B5FF
:1032E0000AD0431C07D0013106D00448FFF736FF4F
:1032F0004FF0FF3008BD084608BD00BF846B0008D2
:1033000008B5431C0DD091F900305A1C04D109E0D6
:1033100011F90C3F5A1C05D09842F9D14868411C5C
:1033200000D008BD0248FFF719FF4FF0FF30F8E763
:10333000986B000810B5044600F048FC014B1C6077
:1033400010BD00BF5C0A002070B500F0DDFC0E4C23
:103350000E4E236873B11D6800F07CFC281A00280B
:103360000CDC216832688B682360002AF2D0486840
:103370009047EEE7BDE8704000F0BEBC2368BDE8B2
:103380007040186800F084BC580A00205C0A0020D5
:1033900038B5054672B60E4B01601C68426084B1B8
:1033A00022688A1A002A05DA0BE01A688A1A002AAB
:1033B00003DB1C46A368002BF7D1A560AB6062B6A7
:1033C00038BD08461D6000F063FC2346F6E700BFE9
:1033D000580A002008B572B6104B1A68824211D004
:1033E0004AB19368834208D02BB19A68824205D0D3
:1033F0001346002BF9D162B608BD134682689A6065
:1034000062B608BD92681A6022B1106800F040FCF4
:1034100062B608BD00F070FCEDE700BF580A00205E
:1034200038B5044600F0D8F9054620B100F0DAF9C5
:1034300004B1206038BD00F083F9284600F0D4F9CB
:10344000F4E700BF38B50D46044600F067F80135D3
:1034500009D02046002100F07DF820460021BDE87B
:10346000384000F073B838BD38B50D46044600F05A
:1034700055F8013510D094F9003001330DD023698F
:10348000626820461A60012100F064F8204600219D
:10349000BDE8384000F05AB838BD0348034935222A
:1034A000FFF746FEEBE700BFB86B0008D06B0008E3
:1034B00038B5054600F0CEFB044600F0CBFB001B00
:1034C000A842FAD338BD00BF08B5044900F096FD04
:1034D00000F05AFFBDE80840FFF7EABF0024744936
:1034E0004FF47A7303FB00F0FFF7E2BF431C10B503
:1034F000044609D020464FF4806100F07BF804F0C8
:103500000F040120A04010BD024803492722FFF705
:103510000FFEEFE7946D0008A86D000870B54B1C16
:1035200004460D46217010D0C1F3031000F034F8AA
:1035300006462846FFF7DAFF06F1080206F11003F7
:1035400014366060A260E360266170BD90F90000EF
:1035500000F0A6B838B5044690F900000D46431CAB
:103560000DD0012D05D0BDE838404FF4806100F04A
:1035700041B84FF48051BDE8384000F03BB80448F2
:1035800004494722FFF7D4FD94F90000E9E700BFA2
:10359000B86B0008A86D000808B503281BD8DFE841
:1035A00000F0140E080220200121FCF775FE0C48E3
:1035B00008BD10200121FCF76FFE0A4808BD082055
:1035C0000121FCF769FE084808BD04200121FCF731
:1035D00063FE064808BD0648FFF7C0FD002008BD91
:1035E0000014014000100140000C0140000801409F
:1035F000146E00082DE9F043431C83B004460E46C8
:1036000039D0C4F30310FFF7C7FF80460120F7B29B
:103610000146FCF741FE7B1EE5B2082B4FEA262649
:1036200005F00F0920D9012707FA09F903234046BD
:1036300001A98DF806308DF80760ADF80490FDF70C
:10364000E5F8A5F10D03BB421BD90F2C05D0133DA6
:10365000012D02D903B0BDE8F0830C480121FDF72C
:1036600037F903B0BDE8F083094B012153F8270077
:10367000FDF72EF9D7E7074807495322FFF758FD12
:10368000BFE739460548FDF723F9E0E700023000BF
:103690009C6E0008946D0008306E00080004300035
:1036A00030B5431C83B004460D463FD0C4F303102D
:1036B000E4B2FFF771FF04F00F03032D16D8DFE823
:1036C00005F010122202072B21D89B0003219940FC
:1036D0000268114205D0042202FA03F30268134380
:1036E000036003B030BD48228DF80720012202FAA2
:1036F00003F301A90322ADF804308DF80620FDF78D
:1037000085F803B030BD28228DF80720EEE704F0DD
:103710000704A4000322A24043681A42E1D0042314
:1037200003FA04F443681C434460DAE7024803499F
:103730007E22FFF7FDFCB9E7946D0008306E0008AB
:1037400070B501214FF0C050FCF7B2FD0120FDF72C
:10375000FFF8FDF7C5F90120FCF730FD002440F229
:10376000BD2601E0B44223D04120FCF7B3FD05465D
:1037700001200444FFF7B4FE002DF3D040F2BD2336
:103780009C4215D04FF48070FCF72EFD47F6FF7475
:103790000120FCF731FDFDF72BF8FDF721F820465D
:1037A000FDF70AF8FDF71CF80A4B01221A6070BDFC
:1037B0000020FCF703FD0120FCF710FD6120FCF761
:1037C00089FD0028FAD04FF40070FCF70DFD49F692
:1037D0003F44DDE7600A0020014B1868704700BFD6
:1037E000600A0020FCF7C2BF10B50446FCF7F8FFE2
:1037F0002046FCF7CDFFBDE81040FCF7F1BF00BF4D
:103800002DE9F041056886B0044600212846FDF701
:1038100091F9D4F814C0D4F804E0D4F81080A76863
:10382000E668A46900230722284601A9ADF80EC066
:10383000ADF808E0ADF80430ADF81230ADF8142062
:10384000ADF80680ADF80A70ADF80C60ADF8104028
:10385000FDF750F928460121FDF76CF906B0BDE8E7
:10386000F08100BF2DE9F04F044683B0084688463A
:103870003B4991461F469DF93060FFF741FD3949AC
:10388000034648460193FFF73BFD37490546384656
:10389000FFF736FD354983463046FFF731FD019B82
:1038A000294682461846FFF719FD514605465846F7
:1038B000FFF714FD01462846FFF710FD421C20606B
:1038C0003DD02B4B984243D02A4B984231D04046B2
:1038D0002349FFF7E1FC48462249FFF7DDFC384663
:1038E0002149FFF7D9FC38230025A361731C84F814
:1038F0001C9084F81D80A777E6776560A560E56079
:103900000BD030461949FFF7C7FC20462561656199
:1039100003B0BDE8F04FFFF773BF4FF482724FF46E
:10392000007320462261636103B0BDE8F04FFFF7EA
:1039300067BF4FF480400121FCF7BAFCC7E70E488F
:103940000E494922FFF7F4FB2068094B9842BBD18E
:103950004FF480500121FCF79FFC2068B4E700BFC2
:10396000346D0008446C0008746C0008646D000835
:103970000030014000380040C46E0008DC6E0008D2
:1039800010290CBF4FF400610021012A41601CD0B6
:10399000022A16D04AB1022101228160C26043B1DD
:1039A000002303614361FFF72BBF8260C260002BDD
:1039B000F6D14FF482724FF4007302614361FFF756
:1039C0001FBF00218260C160E9E70021C260816001
:1039D000E5E700BF03683C4A934231D03B4A93423B
:1039E0002CD13B4B99422EDDA1F57432903A9A428C
:1039F00059D9A1F5F423374AA3F59073934256D9C8
:103A0000A1F57423344AA3F51073934252D9A1F55A
:103A1000F413324AA3F5906393424ED9A1F574137F
:103A20002F4AA3F5106393424AD9A1F5F4012D4B17
:103A3000A1F59051994233D900238361FFF7E0BE8D
:103A4000244B994203DC38238361FFF7D9BEA1F5EB
:103A5000F422A2F590729A4225D9A1F574231E4A48
:103A6000A3F51073934222D9A1F5F4131B4AA3F5D1
:103A7000906393421ED9A1F57413194AA3F51063FC
:103A800093421AD9A1F5F403164AA3F59053934231
:103A900016D9A1F57401144BA1F510519942CBD858
:103AA00008238361CAE730238361FFF7A9BE282377
:103AB0008361C3E720238361C0E718238361BDE7E7
:103AC00010238361BAE700BF003001400038004096
:103AD0008FD003001FA107003F420F007F841E000C
:103AE000FF083D00FF117A00FF23F40070B5044683
:103AF00000680D46064600E020680221FDF72EF81A
:103B00000028F9D03046A9B2FDF722F82068054612
:103B100000E020680121FDF721F80028F9D02846AF
:103B2000FDF718F870BD00BF10B5064C01462046E1
:103B3000FCF70AFE204602210122BDE81040FCF7F6
:103B4000F9BD00BF0008004070B51C4C0121A38CDA
:103B500020469DB2FCF7FAFD0128014615D0174812
:103B60000221FCF7F3FD012800D070BD144C13486E
:103B70000221FCF7F7FD23889BB2BBB9114E3368D5
:103B80005BB9BDE87040FFF7DFBB2046FCF7EAFDFC
:103B90000D4B1A6801321A60E1E74FF6FF70FFF72C
:103BA000C3FF25803368013B336070BD208880B23D
:103BB000FFF7BAFF0023238070BD00BF000800405C
:103BC000640A0020700A00206C0A002030B51B4BEC
:103BD00085B01C680CB105B030BD01252946042014
:103BE0001D60FCF765FB01A8FCF78CFD144A154B22
:103BF000126801A9A3FB0202920C4FF6FF73013A6F
:103C00001148ADF80830ADF80420ADF80A40ADF821
:103C10000640FCF71DFD2A4629460B48FCF78AFDA5
:103C20001E200A49FCF79AFE094B4FF080422946B4
:103C30001A600548FCF770FD05B030BD680A002029
:103C40001801002083DE1B4300080040493B0008A8
:103C500000E100E00B4B10B51B6883B10A490B4C27
:103C60000A68A38C9BB203EB024300E003460A6898
:103C7000A08C80B200EB02408342F7D210BDFFF768
:103C8000A5FFEBE7680A00206C0A0020000800404E
:103C900038B50446FFF7DEFF144B201A9D8C002830
:103CA000ADB21FDD124B134C021480B21A6020809B
:103CB0002288C5F57F4392B2FF339A420ADD4FF660
:103CC000FF70FFF731FF23889BB21D440135ADB271
:103CD000258038BD2388E81880B2FFF725FF002330
:103CE000238038BDBDE83840FFF72EBB00080040F8
:103CF000700A0020640A0020024802210022FCF71A
:103D000019BD00BF0008004001480221FCF72ABD90
:103D10000008004010B5074B044603F10802343395
:103D2000226040F8043FFEF7B1FF2046FCF706FB97
:103D3000204610BD486F0008A0F10400FFF7EABF5D
:103D4000094B10B503F1080204463433226040F8F1
:103D5000043FFEF79BFF2046FCF7F0FA204600F0F8
:103D60002EF8204610BD00BF486F0008A0F10400E7
:103D7000FFF7E6BF074B10B50022044640F8043BAE
:103D8000FEF7BAFF044B204603F10802343384E8FF
:103D90000C0010BD98650008486F000810B5002899
:103DA00014BF04460124204600F088FE30B900F01C
:103DB00009F808B900F00EFB8047F4E710BD00F0E9
:103DC00085BE0000024B1868BFF35F8F704700BFCD
:103DD000740A002003460846194600F007BB00009D
:103DE00080F0004002E000BF81F0004142001FBFB0
:103DF0005FEA410392EA030F7FEA226C7FEA236CB9
:103E00006AD04FEA1262D2EB1363C1BFD2184140AD
:103E100048404140B8BF5B42192B88BF704710F043
:103E2000004F40F4000020F07F4018BF404211F0E6
:103E3000004F41F4000121F07F4118BF494292EA4E
:103E4000030F3FD0A2F1010241FA03FC10EB0C007A
:103E5000C3F1200301FA03F100F0004302D5494207
:103E600060EB4000B0F5000F13D3B0F1807F06D3B4
:103E700040084FEA310102F10102FE2A51D2B1F1AC
:103E8000004F40EBC25008BF20F0010040EA0300A1
:103E90007047490040EB000010F4000FA2F101024E
:103EA000EDD1B0FA80FCACF1080CB2EB0C0200FAD8
:103EB0000CF0AABF00EBC25052421843BCBFD04026
:103EC0001843704792F0000F81F4000106BF80F4A0
:103ED00000000132013BB5E74FEA41037FEA226C63
:103EE00018BF7FEA236C21D092EA030F04D092F02E
:103EF000000F08BF0846704790EA010F1CBF002062
:103F0000704712F07F4F04D1400028BF40F00040BE
:103F1000704712F100723CBF00F50000704700F0DE
:103F2000004343F0FE4040F4000070477FEA226205
:103F300016BF08467FEA23630146420206BF5FEAD6
:103F4000412390EA010F40F4800070474FF00003D6
:103F500004E000BF10F0004348BF40425FEA000C9D
:103F600008BF704743F0964301464FF000001CE045
:103F700050EA010208BF70474FF000030AE000BF9B
:103F800050EA010208BF704711F0004302D54042D9
:103F900061EB41015FEA010C02BF8446014600204B
:103FA00043F0B64308BFA3F18053A3F50003BCFA66
:103FB0008CF2083AA3EBC25310DB01FA02FC634413
:103FC00000FA02FCC2F12002BCF1004F20FA02F21A
:103FD00043EB020008BF20F00100704702F120020D
:103FE00001FA02FCC2F1200250EA4C0021FA02F26E
:103FF00043EB020008BF20EADC7070474FF0FF0C73
:104000001CEAD0521EBF1CEAD15392EA0C0F93EA6D
:104010000C0F6FD01A4480EA010C400218BF5FEA0F
:1040200041211ED04FF0006343EA501043EA511182
:10403000A0FB01310CF00040B1F5000F3EBF49007C
:1040400041EAD3715B0040EA010062F17F02FD2A80
:104050001DD8B3F1004F40EBC25008BF20F0010063
:10406000704790F0000F0CF0004C08BF49024CEA7A
:10407000502040EA51207F3AC2BFD2F1FF0340EA0C
:10408000C250704740F400004FF00003013A5DDC7D
:1040900012F1190FDCBF00F000407047C2F10002BE
:1040A000410021FA02F1C2F1200200FA02FC5FEAAB
:1040B000310040F1000053EA4C0308BF20EADC70F5
:1040C000704792F0000F00F0004C02BF400010F467
:1040D000000F013AF9D040EA0C0093F0000F01F014
:1040E000004C02BF490011F4000F013BF9D041EA36
:1040F0000C018FE70CEAD15392EA0C0F18BF93EA38
:104100000C0F0AD030F0004C18BF31F0004CD8D161
:1041100080EA010000F00040704790F0000F17BFE8
:1041200090F0004F084691F0000F91F0004F14D02E
:1041300092EA0C0F01D142020FD193EA0C0F03D186
:104140004B0218BF084608D180EA010000F0004089
:1041500040F0FE4040F40000704740F0FE4040F464
:10416000400070474FF0FF0C1CEAD0521EBF1CEA03
:10417000D15392EA0C0F93EA0C0F69D0A2EB030221
:1041800080EA010C49024FEA402037D04FF08053BB
:1041900043EA111143EA10130CF000408B4238BF80
:1041A0005B0042F17D024FF4000C8B4224BF5B1A8E
:1041B00040EA0C00B3EB510F24BFA3EB510340EADC
:1041C0005C00B3EB910F24BFA3EB910340EA9C008A
:1041D000B3EBD10F24BFA3EBD10340EADC001B01FA
:1041E00018BF5FEA1C1CE0D1FD2A3FF650AF8B429E
:1041F00040EBC25008BF20F0010070470CF0004CAB
:104200004CEA50207F32C2BFD2F1FF0340EAC250D5
:10421000704740F400004FF00003013A37E792F096
:10422000000F00F0004C02BF400010F4000F013AF4
:10423000F9D040EA0C0093F0000F01F0004C02BFEF
:10424000490011F4000F013BF9D041EA0C0195E758
:104250000CEAD15392EA0C0F08D142027FF47DAFF1
:1042600093EA0C0F7FF470AF084676E793EA0C0FE1
:1042700004D14B023FF44CAF08466EE730F0004CDF
:1042800018BF31F0004CCAD130F000427FF45CAF6F
:1042900031F000437FF43CAF5FE700BF4FF0FF3CDD
:1042A00006E000BF4FF0010C02E000BF4FF0010C30
:1042B0004DF804CD4FEA40024FEA41037FEA226CF9
:1042C00018BF7FEA236C11D001B052EA530C18BF1B
:1042D00090EA010F58BFB2EB030088BFC81738BF80
:1042E0006FEAE17018BF40F0010070477FEA226C6E
:1042F00002D15FEA402C05D17FEA236CE4D15FEA6A
:10430000412CE1D05DF8040B704700BF844608469D
:104310006146FFE70FB5FFF7C9FF002848BF10F15E
:10432000000F0FBD4DF808EDFFF7F4FF0CBF0120A3
:1043300000205DF808FB00BF4DF808EDFFF7EAFF2D
:1043400034BF012000205DF808FB00BF4DF808EDE8
:10435000FFF7E0FF94BF012000205DF808FB00BFDD
:104360004DF808EDFFF7D2FF94BF012000205DF863
:1043700008FB00BF4DF808EDFFF7C8FF34BF012070
:1043800000205DF808FB00BF4FEA4002B2F1FE4F8B
:104390000FD34FF09E03B3EB12620DD94FEA002307
:1043A00043F0004310F0004F23FA02F018BF4042E0
:1043B00070474FF00000704712F1610F01D14202C7
:1043C00005D110F0004008BF6FF0004070474FF07B
:1043D0000000704708B5062001F0B0F90120FCF795
:1043E00021F900210A2201F049BB000038B5054639
:1043F00004480C46134620B1022029462246AFF35A
:10440000008038BD00000000014B1868704700BFF5
:104410008401002008B5074B044613B10021AFF317
:104420000080054B1868836A03B198472046FCF763
:10443000F9F800BF00000000E86F000870B50546FD
:104440000C4609B9002070BD18B183690BB900F0A2
:104450004FF9204B9C4201D16C6808E01E4B9C42F6
:1044600001D1AC6803E01D4B9C4208BFEC68B4F975
:104470000C30002BE6D02846214600F039F8236B9B
:10448000064633B12846216A98470028B8BF4FF046
:10449000FF36A3891B0603D52846216900F050FB8F
:1044A000616B41B104F14403994202D0284600F007
:1044B00047FB00236363A16C21B1284600F040FB59
:1044C0000023A36400F07EF90023A38100F07BF9B0
:1044D000304670BD886F0008A86F0008C86F0008DC
:1044E000024B01461868FFF7A9BF00BF84010020F6
:1044F0008A892DE9F041054610070C4657D44B68D0
:10450000002B02DC0B6C002B18DDE66AB6B102F45E
:104510008052002392B22F682B600AB1626D10E0C6
:10452000216A28460123B047411C024609D12B6865
:104530003BB11D2B01D0162B46D12F600020BDE8CA
:10454000F081A3895B0705D56368D21A636B0BB151
:10455000236CD21AE66A00232846216AB047461C1B
:10456000A38905D12A681AB11D2A01D0162A19D1AA
:10457000002262602269D904226004D5421C01D164
:104580002B6803B96065616B2F600029D6D004F1F8
:104590004403994202D0284600F0D2FA002060631A
:1045A000BDE8F08143F04003A381BDE8F0810F69CD
:1045B000002FC3D093070E680CBF4B690023C7EBD5
:1045C00006080F608B6012E0A3894FF0FF3043F0C4
:1045D0004003A381BDE8F0812846216A3A4643465C
:1045E000A66AB0470028EFDD0744C0EB0808B8F121
:1045F000000FF1DCA2E7000038B50B6905460C4658
:10460000DBB118B183690BB900F072F80C4B9C4216
:1046100001D16C6808E00B4B9C4201D1AC6803E00F
:10462000094B9C4208BFEC68B4F90C302BB128460A
:104630002146BDE83840FFF75BBF002038BD00BF12
:10464000886F0008A86F0008C86F0008014620B9ED
:10465000044B0549186800F0A1B9044B1868FFF72E
:10466000CBBF00BFE86F0008F945000884010020B7
:10467000014900F093B900BFF945000810B50446A0
:10468000002303604360836081814366C2810361CC
:104690004361836119465C30082200F048FA054BFB
:1046A00024626362044BA362044BE362044B236302
:1046B00010BD00BF755800089B580008D35800086B
:1046C000F758000870B568234D1E5D430E4605F18E
:1046D000740100F079FA044640B1002180E84200FC
:1046E0000C30A06005F1680200F021FA204670BD90
:1046F000836910B5044633BB8364C3640365124BFE
:10470000124A1B688262984204BF0123836100F051
:104710001FF86060204600F01BF8A060204600F003
:1047200017F80421E06000226068FFF7A7FFA06887
:1047300009210122FFF7A2FFE06812210222FFF700
:104740009DFF0123A36110BDE86F000871460008BA
:10475000F8B51B4B07461E68B36913B93046FFF71F
:10476000C7FF4836B4687368013B04D4B4F90C50F1
:1047700075B16834F8E733682BB938460421FFF780
:10478000A1FF306008B13668ECE70C233B60F8BD50
:104790004FF6FF73E3810123A38165662560A56061
:1047A000656025616561A56104F15C002946082208
:1047B00000F0BDF96563A563A564E5642046F8BD16
:1047C000E86F000870477047F7B50F46114601AA19
:1047D000054601F0F9FA064608B9002029E0284606
:1047E000FFF7B6FF04460028F7D028463946019A5D
:1047F0004FF4DB7300F05CFE002806DA0025FFF7BB
:10480000E1FFA581FFF7DFFFE7E70B4BE081636284
:104810000A4BA681A3620A4B2462E362094B23631D
:10482000F30505D5284621460022022300F028F88A
:10483000204603B0F0BD00BF755800089B58000823
:10484000D3580008F758000803460A46024908688A
:104850001946FFF7B9BF00BF840100200EB403B5AD
:10486000014603AB054853F8042B0068019300F0A0
:1048700029FA02B05DF804EB03B070478401002010
:1048800000F000B82DE9F8430C4690461E46054658
:1048900018B183690BB9FFF72BFF3D4B9C4201D147
:1048A0006C6808E03B4B9C4201D1AC6803E03A4B9A
:1048B0009C4208BFEC68A38903F48473B3F5847F3A
:1048C00003D128462146FFF797FEE76A0FB91D235B
:1048D0002BE0012E04D0022E2BD056B3162324E059
:1048E00028462146FFF788FEA28902F4805292B240
:1048F0000AB1606D05E0216A28463346B847411C7D
:1049000014D0A3895A0706D56368C01A636B4BB1EC
:10491000236CC01A06E01B0704D5236813B1226973
:104920009B1A18448044002603E02B604FF0FF39A7
:104930002BE023691BB92846214600F073F828466E
:104940002146FFF759FE81460028EFD12846216A0B
:1049500042463346B8470130E8D0616B41B104F1BB
:104960004403994202D0284600F0EAF8002363632A
:10497000236900212360A389616023F40263A3817A
:1049800004F15C00082200F0D2F84846BDE8F88344
:10499000886F0008A86F0008C86F00082DE9F84369
:1049A0008046894600F14804002694B1A5686768EE
:1049B000013F0CD4AB89012B07D9B5F90E30013377
:1049C00003D040462946C84706436835F0E72468C7
:1049D000EBE73046BDE8F8830E4B70B51E460E4C33
:1049E0000025E41AA410A54204D056F825309847B3
:1049F0000135F8E701F0B4FD084B094C1E46E41AF6
:104A0000A4100025A54204D056F82530984701355A
:104A1000F8E770BD8C0100208C0100208C01002083
:104A200094010020F0B58B8991B09D0706460C4695
:104A300025D4B1F90E10002908DAA389002513F056
:104A4000800F14BF40274FF480670DE001AA01F0EA
:104A5000F3F90028F1DB029D4FF4806705F47045FF
:104A6000A5F500514D424D413046394600F0ACF8B5
:104A700060B9A3899A051DD443F00203A38104F110
:104A80004703236023610123636113E00A4BB36290
:104A9000A389206043F08003A381206167614DB149
:104AA0003046B4F90E1001F0D9F918B1A38943F0DA
:104AB0000103A38111B0F0BD71460008024B01460D
:104AC000186800F081B800BF84010020024B014645
:104AD000186800F035B800BF8401002010B5C9B2D5
:104AE00002449042034605D01C7801308C42F8D134
:104AF000184610BD002010BD10B50A44441E914256
:104B000008D014F8013F0878834201D0181A10BD6C
:104B10000131F4E7002010BD10B5431E0A44914254
:104B200004D011F8014B03F8014FF8E710BD03461C
:104B30000244934202D003F8011BFAE770470000D9
:104B400030B500293CD051F8042C0B1F1D49002A18
:104B5000B8BF9B180A680C4612B95A600B6030BD8A
:104B600093420DD219685818904201BF5A585218F2
:104B70001A60426823605A6030BD994203D80A46E1
:104B800051680029F9D1146815199D420AD11B6892
:104B90002344D0188842136012D10868034413607C
:104BA0004B680CE002D90C23036030BD1C68181957
:104BB000884201BF0868496800191860596053604D
:104BC00030BD00BF7C0A002070B5CC1C24F003046B
:104BD00008340C2C38BF0C24002C064603DA0C23B6
:104BE0003360002070BD8C42F9D3204A1368104610
:104BF0001946A1B10A68121B0ED40B2A03D90A6008
:104C00008B188C501FE08B420BBF5A684A680260B9
:104C10005A6018BF0B4616E00B464968E9E7144D89
:104C20002B681BB9304600F08FFC286030462146C7
:104C300000F08AFC421C0346D1D0C51C25F00305B8
:104C400085420AD11C6003F10B001A1D20F00700F9
:104C5000821A0AD05142995070BD3046E91A00F0CC
:104C600073FC0130BBD02B46ECE770BD7C0A002002
:104C7000780A0020936810B5013B002B936009DA95
:104C80009469A34202DBCBB20A2B03D1BDE81040EA
:104C900000F0B8BF1368581C10601970C8B210BD7E
:104CA000F8B506460F461446D518AC4208D0304633
:104CB00014F8011B3A46FFF7DDFF431CF5D100E075
:104CC0000020F8BD2DE9F0439DB00D4690460393BA
:104CD000064618B183690BB9FFF70AFD754B9D4273
:104CE00001D1756808E0744B9D4201D1B56803E0BD
:104CF000724B9D4208BFF568AB891C070AD52B692A
:104D000043B10023099320238DF8293030238DF8F7
:104D10002A3041E03046294600F0DAFF0028F0D082
:104D20004FF0FF30C2E0039A0134111D1268039165
:104D3000002ABBBF524243F0020307920792B8BF5A
:104D4000049323782E2B7BD0DFF880812178404696
:104D50000322FFF7C3FE38B1049AC8EB00004023DA
:104D6000834013430493013421785548062204F10B
:104D700001088DF82810FFF7B1FE002800F08580AB
:104D8000504B002B78D1039B073323F007030833E4
:104D90000393099B3B44099343461C4613F8012B9C
:104DA0001AB9B4EB08090ED002E0252AF5D1F8E7CC
:104DB0003046294642464B46FFF772FF013070D01D
:104DC000099B4B4409932378002B6AD000234FF0B2
:104DD000FF3204930793059206938DF853301A938C
:104DE00004F101084446DFF8E8902178484605229E
:104DF000FFF774FE08F10108049B30B1C9EB000015
:104E00000122824013430493ECE7D80644BF2022DA
:104E10008DF85320190744BF2B228DF85320227898
:104E20002A2A80D0234607991C4622780133303A3B
:104E3000092A03D80A2000FB0121F5E7079180E742
:104E400063782A2B0AD1039B02341A1D1B68039234
:104E5000002BB8BF4FF0FF33059375E7611C0022AC
:104E60000C4623780131303B092B03D80A2000FB84
:104E70000232F5E7059267E703AB0093304604A9D9
:104E80002A46114BAFF3008007E003AB0093304696
:104E900004A92A460C4B00F0A1F8421C07467FF4F7
:104EA00078AFAB895B063FF53BAF09981DB0BDE815
:104EB000F08300BF886F0008A86F0008C86F000863
:104EC000F66F000800000000A14C0008F26F000817
:104ED000EC6F000830B505460C461346034A2946D8
:104EE00010682246BDE83040FFF7ECBE8401002088
:104EF0002DE9F84391461F468A680B69064693429E
:104F0000B8BF1346C9F8003091F843200C46DDF8CD
:104F1000208012B10133C9F800302368990642BFDE
:104F2000D9F800300233C9F80030256815F00605BD
:104F30001CD094F843302268003318BF0123920636
:104F40001FD5E118302081F843005A1C94F8451011
:104F50002244023382F8431013E03046394604F10C
:104F600019020123C047013007D00135E368D9F8A1
:104F700000209B1A9D42F0DBDBE74FF0FF30BDE8DD
:104F8000F8833046394604F14302C0470130F4D07B
:104F90002268D9F80050E36802F00602042A08BF2C
:104FA0005D1B2269A3680CBF25EAE57500259342C5
:104FB000C4BF9B1AED184FF00009A9450ADA304624
:104FC000394604F11A020123C0470130D5D009F156
:104FD0000109F2E70020BDE8F88300002DE9FF4158
:104FE0000C461746227E98466E2A06460A9B01F119
:104FF000430100F0AA8012D8632A23D00AD8002ADD
:1050000000F0B780582A40F0C68084F84520DFF8C9
:10501000F8E151E0642A1ED0692A1CD0BBE0732A53
:1050200000F0AB8009D86F2A2BD0702A40F0B380F3
:10503000226842F02002226039E0752A21D0782AC5
:1050400035D0A8E01A6804F14205111D19601368F3
:1050500084F84230A3E020681A6810F0800F03D073
:10506000101D1860136805E04506F9D5101D18607D
:10507000B2F90030002B3BDA2D225B4284F843204A
:1050800036E020681A6810F0800F03D0101D1860F9
:10509000136804E04006F9D5101D18601388227EBD
:1050A000DFF864E16F2A0CBF08220A221CE0782294
:1050B000DFF858E184F845202268186812F0800F64
:1050C00000F104051D6001D0036802E05506FBD520
:1050D0000388D00744BF42F0200222601BB9226837
:1050E00022F0200222601022002084F8430002E017
:1050F000DFF814E10A226568002DA8BF2068A560CA
:10510000A4BF20F00400206003B965B10D46B3FBD5
:10511000F2F002FB10331EF8033005F8013D0346A0
:105120000028F4D100E00D46082A0BD12368DA07E5
:1051300008D5236962689A42DEBF302305F8013C36
:1051400005F1FF35491B21612EE025681A6815F02D
:10515000800F606903D0151D1D60136808E015F00D
:10516000400F02F104051D60136801D0188000E0B3
:105170001860002323610D4616E01A68111D19609E
:105180001568002128466268FFF7A8FC08B1401B9B
:105190006060636804E004F1420584F84220012362
:1051A0002361002384F84330CDF800803046214647
:1051B00003AA3B46FFF79CFE013002D14FF0FF30BF
:1051C0001FE0304639462A462369C0470130F5D0F2
:1051D00023689B0705D4E068039B9842B8BF184634
:1051E0000FE00025E368039A9B1A9D42F3DA3046EC
:1051F000394604F119020123C0470130DED00135E0
:10520000F0E704B0BDE8F081FD6F00080E70000803
:105210002DE9F04115468A6880460C4632B98A6904
:10522000002A0CBF01224FF0FF328A60226800265C
:10523000D1065FBF1A68111D19601768A069F8B917
:1052400023680136DA065EBF2B681B783B702A683C
:105250006B6802F101022A60A26803F1FF3302F1D8
:10526000FF326B6058BF0137A260EAB1002BE5DC6A
:10527000D4F880314046294698470028DED013E014
:10528000012807D12B6862691B78D35C002BD7D12A
:10529000C6B109E0022807D12B680B4A1B781268B7
:1052A00013445B781B07CBD5236813F0100305D19B
:1052B000E2680132E260A26902B13B70236900201A
:1052C0001E442661BDE8F081880100202DE9F04FE1
:1052D0000C469A46724B87B08346164693E8070001
:1052E00003AB83E807006F4BA1696F4A04F11C0907
:1052F000032918BF1A46A36800925A1EB2F5AE7F62
:1053000082BF6FF4AE7503EB050840F25D134F46A4
:1053100088BFA360236898BF4FF0000843F4506330
:1053200023600023326803A951F823001178022278
:105330000193FFF7D3FB019B002835D0012B0BD144
:1053400062682AB908226260226842F40072226010
:10535000226822F4A0620BE0022B0AD1226802F438
:10536000C061B1F5007F1FD11021616042F48072ED
:105370002260A268511EA160B2B132687D1C511C2E
:10538000316012783A707268013A002A72600ADC61
:10539000D4F880215846314601939047002841D1E6
:1053A0002F46019B00E02F460133032BBAD16368DF
:1053B0000BB90A23636063683C496069C91A00F04D
:1053C000D3F83D460027A3686BB3316860690A785B
:1053D000805C40B3302A22680AD1100508D5013715
:1053E000B8F1000F0BD0013308F1FF38A36006E0DD
:1053F00022F4106222600B78013505F8013C7368D5
:10540000013B002B736003DD33680133336005E03B
:10541000D4F8803158463146984720B9A368013BFB
:10542000A360D0E700272368D9050DD54D4509D9DC
:1054300015F8011C05F1FF38D4F87C315846324686
:10544000984745464D4527D0226812F010021BD1DF
:105450002A70636858464946009EB0472268DAF8C9
:10546000003012F0200F07D1D20705D51A1DCAF857
:1054700000201B68188004E01A1DCAF800201B6871
:105480001860E3680133E360C9EB05053D44276913
:1054900000203D44256100E0012007B0BDE8F08F09
:1054A00020700008995A0008715900083C700008E3
:1054B00038B5074C054600202060084611461A46BC
:1054C000FAF774FF431C02D1236803B12B6038BD87
:1054D0009C0A0020194B10B51C68A36BD3B9182087
:1054E000FFF7ECFA43F20E33A06303804AF6CD33A4
:1054F000438041F2342383804EF26D63C3804DF6C6
:10550000EC630381052343810B2383810122002364
:10551000C0E90423A16B0A4C0B6948695C43094A42
:1055200002FB0040A3FB02230132034443F10003CA
:10553000C1E9042323F0004010BD00BF8401002016
:105540002DF451582D7F954C38B5064C0023054657
:1055500008462360FBF752F8431C02D1236803B1CD
:105560002B6038BD9C0A0020F0B50A78441E5E2AE4
:1055700013BF4B1C8B1C4A78002108BF012100F18E
:10558000FF0504F8011FAC42FBD10AB9581EF0BD5B
:10559000C1F10104E7B2875419785E1C2D2905D0AA
:1055A0005D290ED079B10A463346F3E75D785D2D6B
:1055B000F9D09542F7DB02330132AA428754FBDB74
:1055C000EAE73046F0BD1846F0BD00290CBF0222C4
:1055D00000224FF4806300F001B800002DE9F04193
:1055E0001D463D4B04461E680F46904626B1B369E2
:1055F00013B93046FFF77CF8384B9C4201D17468F0
:1056000008E0374B9C4201D1B46803E0354B9C4223
:1056100008BFF468B8F1020F5AD8002D58DB3046A5
:105620002146FEF7E9FF00236360A361A3891B06FF
:1056300003D530462169FFF783FAA389B8F1020F39
:1056400023F08303A38112D037BB002D08BF4FF492
:1056500080652846FFF732FA0746C8B94FF48060E4
:10566000FFF72CFA074688B94FF0FF3000E0002022
:10567000A38943F00203A3810023A36004F147033D
:105680002360236101236361BDE8F0814FF48065ED
:10569000A38943F08003A381B8F1010F01BFA3895F
:1056A00043F00103A3816B4208BFA3610E4BB362B9
:1056B000A389276003F0080080B22761656148B1C3
:1056C00013F0030F18BF0025A5600020BDE8F0818E
:1056D0004FF0FF30BDE8F08184010020886F0008A2
:1056E000A86F0008C86F0008714600081F2938B568
:1056F00004460D4604D9162303604FF0FF3038BD31
:10570000426C12B152F821304BB9204600F030F80B
:105710002A4601462046BDE8384000F017B8012B64
:105720000AD0591C03D116230360012038BD002480
:1057300042F8254028469847002038BD024B0146D4
:105740001868FFF7D3BF00BF8401002038B5074CAD
:105750000023054608461146236000F0F9FE431C6D
:1057600002D1236803B12B6038BD00BF9C0A002022
:1057700000F0E6BE0CB430B5164B0C1E9DB01D6893
:1057800004DA8B232B604FF0FF301EE04FF40273DE
:10579000ADF814300CBF234604F1FF330493079394
:1057A0004FF6FF7302900690ADF81630284621ABF5
:1057B00002A9209A019300F00DFC431CBCBF8B236F
:1057C0002B6014B1029B00221A701DB0BDE830405E
:1057D00002B07047840100200EB400B54FF402718E
:1057E0009CB0ADF814106FF00041049107914FF692
:1057F000FF711DABADF81610084953F8042B029049
:105800000690086802A9019300F0E4FB029B0022C5
:105810001A701CB05DF804EB03B0704784010020DF
:105820000EB430B59CB01FAC4FF4017254F8045B59
:10583000ADF814200290069000F079F80B4B03901D
:105840000B9300230F9314934FF6FF73ADF81630AC
:10585000074B079002A918682A462346019400F0D6
:1058600005FD1CB0BDE8304003B0704797580008F4
:105870008401002010B50C46B1F90E1000F044FE72
:105880000028ABBF636DA3891B1823F48053ACBF02
:105890006365A38110BD002070472DE9F0411D46CE
:1058A0008B890746DB050C46164605D5B1F90E1067
:1058B0000022022300F0E2FAA389384623F4805341
:1058C000A381B4F90E1032462B46BDE8F04100F03A
:1058D000EDB910B50C46B1F90E1000F0CFFA431C2B
:1058E000A38915BF606523F4805343F48053A381DB
:1058F00018BFA38110BDB1F90E1000F055BAC9B29E
:10590000034610F8012B1AB18A42F9D118467047A4
:1059100000290CBF18460020704710F8012B11F821
:10592000013B012A28BF9A42F7D0D01A704703469C
:1059300013F8012B002AFBD1181A0138704770B5F3
:10594000A2B1451E01396B7811F8014F6E1CA342BC
:1059500006D16FF00104641B1444E04202D11C46DE
:10596000181B70BD3546002BEDD1F8E7104670BD11
:105970002DE9F0470F46404CD4F800903D4615F80D
:1059800001EB09EB0E04667806F0080404F0FF064C
:105990000CB12F46F2E774462D2C03D1BD1C7C7848
:1059A000012603E02B2C04BF7C78BD1C13B1102B07
:1059B0000AD15AE0302C56D12C7804F0DF04582C50
:1059C0004CD16C7810230235002E14BF4FF00048E4
:1059D0006FF00048B8FBF3FA0027BE4603FB1A88B5
:1059E00009EB040C9CF801C01CF0040F01D0303C02
:1059F0000BE01CF0030C1BD0BCF1010F0CBF4FF0EF
:105A0000370C4FF0570CCCEB04049C4210DAB7F182
:105A1000FF3F0AD0D64506D801D1444503DC03FB3D
:105A20000E4E012701E04FF0FF3715F8014BD7E785
:105A30007C1C73460AD1002E4FF0220114BF4FF098
:105A400000436FF0004301602AB911E00EB1CEF1BE
:105A500000036AB107B1691E116009E03024002B10
:105A6000B2D10823B0E70A23AEE7302CACD1A3E7CC
:105A70001846BDE8F08700BF8801002030B5054614
:105A80000C461346034A294610682246BDE83040BA
:105A9000FFF76EBF840100202DE9F0470E463B4C16
:105AA000D4F80090354615F801EB09EB0E04677841
:105AB00007F0080404F0FF070CB12E46F2E7744625
:105AC0002D2C03D1B51C7478012703E02B2C04BFC7
:105AD0007478B51C13B1102B0AD151E0302C4DD184
