:020000040800F2
:1000000000800120D9050008090600080B06000839
:100010000D0600080F060008110600080000000089
:1000200000000000000000000000000013060008AF
:100030001506000800000000170600081906000851
:100040001B0600081B0600081B0600081B0600080C
:100050001B0600081B0600081B0600081B060008FC
:100060001B0600081B0600081B0600081B060008EC
:100070001B0600081B0600081B0600081B060008DC
:100080001B0600081B0600081B06000800000000F5
:100090000000000000000000000000001B06000837
:1000A0001B0600081B0600081B0600081B060008AC
:1000B0001B0600081B0600081B0600081B0600089C
:1000C0001B0600081B0600081B0600081B0600088C
:1000D0001B0600081B0600081B06000800000000A5
:1000E0001B0600081B0600081B0600080000000095
:1000F0000000000000000000000000001B060008D7
:10010000000000001B0600081B0600081B06000874
:1001100000000000000000000000000000000000DF
:100120001B0600081B0600081B0600081B0600082B
:100130001B06000800000000000000000000000096
:100140000000000000000000000000001B06000886
:100150001B0600081B0600081B0600081B060008FB
:100160001B0600081B06000800000000000000003D
:10017000000000000000000000000000000000007F
:10018000000000001B0600081B06000810B5054C07
:10019000237833B9044B13B10448AFF30080012333
:1001A000237010BD6002002000000000E07F000806
:1001B000084B10B51BB108480849AFF30080084848
:1001C000036803B910BD074B002BFBD0BDE81040FE
:1001D000184700BF00000000E07F00086402002014
:1001E0005C02002000000000154B002B08BF134BE1
:1001F0009D46A3F5803A00218B460F461348144ACA
:10020000121A04F0C1FF0F4B002B00D098470E4B81
:10021000002B00D098470020002104000D000D485D
:10022000002802D00C48AFF3008004F009FE200043
:10023000290000F0B1F903F07BFD00BF00000800C9
:10024000008001200000000000000000600200208B
:10025000180800200000000000000000036870B5CE
:1002600000211D6901220446A847431C05460ED003
:10027000216802220E6920460021B0472268064606
:1002800013692046294600229847304670BD06462D
:10029000FBE700BF0D4B0E4A30B4026003F58074DB
:1002A000002501E0A3420FD01A4652F8041B8142F8
:1002B000134608BF42F8045C53F8042B8242F1D184
:1002C000A34243F8045CEFD130BC70477C020020AD
:1002D0001873000838B50F4A0F4B0260044600251A
:1002E00003F5807001E083420FD01A4652F8041BD8
:1002F0008C42134608BF42F8045C53F8042B944226
:10030000F1D1834243F8045CEFD1204604F09BFA1C
:10031000204638BD187300087C020020044B186882
:1003200000B1704703480221032203F003BA00BF63
:1003300094060020F8070020F0B50F4685B030493C
:10034000064606F068F80446002836D030462D49A7
:1003500006F061F860B330462B4906F05CF80028DF
:100360002FD02A48002406E05D680134181D35B1FD
:100370000134402C29D04568031D002DF4D131787B
:100380003A2936D002A8314603F088FA02A803F0D1
:10039000D7FAD0B102A803F0BFFAC8B102A803F09F
:1003A000C5FA03468BB11A49E01C41F8243002E03B
:1003B000FFF7B4FF012005B0F0BDFFF7AFFF204607
:1003C000F9E7FFF7ABFF0220F5E74FF0FF30F2E768
:1003D00002A803F099FA05460028F6D0026802A8A0
:1003E000966803F085FA3A4601462846B047034628
:1003F000D8E73046074901AA05F090FF019BD1E7F5
:10040000F8720008087300080073000878020020E2
:100410007C02002040730008022808B50BDDC21ED4
:10042000074B53F82200002143F8221028B102683C
:100430005368984708BD002008BD4FF0FF3008BD45
:100440007C0200200228F8B50D46174628DC1D491D
:100450000A68002A2DD00FB32C46EE1914F8011BA0
:100460001948ED43AB1903F0010503F00BFAB44250
:1004700014D035B114F8011B134803F003FAB44249
:100480000CD02546104815F8011B03F0FBF96178E4
:100490000D486C1C03F0F6F9B442F2D13846F8BDB1
:1004A00003380A4B53F8200040B103681B68984793
:1004B000F8BDFFF733FF002FCED1EFE74FF0FF304D
:1004C000F8BD00BF94060020F80700207C02002041
:1004D000022810B50C4609DC0D4A106888B10D4899
:1004E00003F0C4F901212070084610BD03380A4BFF
:1004F00053F8200040B103689B68984701460846BE
:1005000010BDFFF70BFFEAE74FF0FF31ECE700BF4C
:1005100094060020F80700207C020020022808B57D
:1005200008DD0338064B53F8200028B10168CA687B
:10053000904708BD012008BD4FF0FF3008BD00BF47
:100540007C020020022808B508DD0338064B53F86A
:10055000200028B103681B69984708BD002008BD2A
:100560004FF0FF3008BD00BF7C020020022808B514
:1005700004D84FF400504860002008BD04F08CF906
:10058000092303604FF0FF3008BD00BF08B501200C
:1005900003F0CEFB704700BF08B500F013FDFFF776
:1005A000F9FFBDE8084001F08BBD00BF084A1368A1
:1005B0001818EFF30881884202D21060184670477D
:1005C000044B0C221A604FF0FF331846704700BFEF
:1005D00098010020140800200649074A074B9A4258
:1005E000BEBF51F8040B42F8040BF8E704488047FB
:1005F0000448004714800008940100206002002095
:1006000039150008E9010008FEE7FEE7FEE7FEE70E
:10061000FEE7FEE7FEE7FEE7FEE7FEE74FF46D4389
:10062000CEF200034FF6FF02D9680A4042F0BF62E3
:1006300042F4003100F0070041EA0022DA6070471E
:1006400008B572B6962003F07FFC962003F07CFC80
:10065000F8E700BF704700BF036801201A6A00FA7C
:1006600001F122EA01021A62186A0022C4F20102B0
:1006700001439342196205D01A6842F001011960E2
:1006800000207047596C41F400405864F4E700BF03
:100690000023C4F20103984230B402683DD0B0F1A7
:1006A000804F2CD04FF48064C4F20004A04226D0C6
:1006B0004FF40063C4F20003984220D04FF440642A
:1006C000C4F20004A0421AD04FF48043C4F20103E4
:1006D000984218D04FF48844C4F20104A04212D0CA
:1006E0004FF49043C4F2010398420CD08C6809681F
:1006F0000260C46281620122426130BC70474D6871
:1007000022F070022A43CD688C680B6822F4407195
:1007100029430160C4628362EDE74C68CB6822F034
:100720007002144324F44074234303608A68C26255
:100730000B68836209690163DDE700BF10B50446F9
:1007400090B190F8393063B12146022251F8040B80
:1007500084F83920FFF79CFF012084F8390000203D
:1007600010BDFFF777FFEFE7012010BD704700BF16
:1007700010B50446E0B1437BBBB123686168A26851
:100780000220607345F255501860586820F0070049
:1007900001435960986820F47F6121F00F00024303
:1007A0009A6001230020637310BDFFF7DFFFE4E7C9
:1007B000012010BD027B012A10B403460FD001684E
:1007C0004CF6CC44022058730C604AF6AA240C6004
:1007D00000220121104659731A7310BC7047022081
:1007E000FBE700BF38B5037B012B044601D1022093
:1007F00038BD012002212073617300F0BBFD054666
:1008000005E000F0B7FD421BB2F57A7F0CD82268F4
:10081000D36813F00203F4D14AF6AA200121106034
:1008200018466173237338BD03200023607323735C
:1008300038BD00BF407B70474FF46D43CEF20003DC
:10084000F0B49F689A68B2F1006F3B4604D0103054
:1008500043F82010F0BC70474FF0005453F8045B8D
:1008600007F5CA7725601A46251D52F8046B6660A5
:100870005C68131D6C602C1DBB42F4D14FF46D42BB
:10088000CEF200024FF000539360E0E7F8B5036842
:100890000446D80744D54FF46052C4F2020291686E
:1008A00001F00C00042800F03781916801F00C0081
:1008B000082800F02D8143F60203C4F2020300254C
:1008C0001D7000F057FD4FF460550646C4F2020556
:1008D00006E000F04FFD831BB3F5FA7F00F2F280D3
:1008E00029688B03F5D443F602062079C4F2020688
:1008F0004FF4605530706268012A00F0978100F073
:1009000039FDC4F20205064606E000F033FD811B06
:10091000B1F5FA7F00F2D6802B689903F5D42368ED
:100920009A073BD54FF46050C4F20200816811F081
:100930000C0F00F0CD80826802F00C01082900F055
:10094000C380E668002E00F00B810025C4F2472525
:100950000120286000F00EFD4FF460550646C4F2F9
:10096000020505E000F006FD831B642B00F2AA805F
:100970002A684FF460539207C4F20203F2D5196853
:10098000F82090FAA0F2B2FA82F02269C0B202FA1C
:1009900000F221F0F8010A431A602368190726D4EF
:1009A000580741D4A16901B34FF46056C4F202065E
:1009B000B26802F00C00082800F0BA804FF0600521
:1009C000C4F247254FF0000302292B6000F0DE80BF
:1009D00000F0D0FC3446054604E000F0CBFC421B9E
:1009E000642A6FD821688B01F7D40020F8BD6669AE
:1009F000002E00F09F804FF46865C4F24725012067
:100A0000286000F0B7FC4FF460550646C4F20205BA
:100A100004E000F0AFFC801B642853D86B6F9A078A
:100A2000F7D523685807BDD54FF46056C4F20206C7
:100A30004FF4E045326CC4F2000542F0805131645D
:100A4000286840F480732B6000F094FC064604E0B4
:100A500000F090FC811B642934D82A68D105F7D5B1
:100A600043F67005C4F2020500262E7000F082FCE9
:100A70004FF460550646C4F2020505E000F07AFC2A
:100A8000831BB3F5167F1DD8296F8A07F6D443F66A
:100A90007000237AC4F202004FF460550370A2681C
:100AA000012A00F0D48000F065FCC4F2020506467D
:100AB000296F88077FF576AF00F05CFC801BB0F5EE
:100AC000167FF5D90320F8BD406840023FF539AFE5
:100AD0004FF46052C4F202021068810702D5E16847
:100AE000012925D14FF46052C4F20202F8251068A2
:100AF00095FAA5F1B1FA81F52169EDB201FA05F196
:100B000020F0F8000143116019077FF549AF6EE747
:100B1000526851027FF5CFAE4FF46051C4F202012A
:100B2000086882037FF5FCAE6268012A3FF4F8AEE4
:100B30000120F8BD4FF46863C4F247234FF46055B9
:100B40001E6000F017FCC4F20205064604E000F047
:100B500011FC811B6429B5D86A6F9307F7D460E74D
:100B60000023C4F247234FF460551E6000F002FCDE
:100B7000C4F20205064604E000F0FCFB811B642978
:100B8000A0D82A689007F7D4236807E700F0F2FBA3
:100B9000074604E000F0EEFBC01B642892D83068E2
:100BA0004FF460558101C4F20205F3D447F6C07ECC
:100BB0009EFAAEF7B7FA87FE4FF4403696FAA6F3E0
:100BC000B3FA83F34FF0706191FAA1F2B2FA82F2B4
:100BD000D4F820C0E669A16A676AE06A4CEA0606B2
:100BE0005FFA8EF44908DBB246F0005607FA04F4C7
:100BF0000139344301FA03F1D2B2602300FA02F062
:100C00002143C4F2472341EA000401226C601A60C8
:100C100000F0B0FB044605E000F0ACFB011B6429CA
:100C20003FF650AF2B689A01F6D5DEE600F0A2FB46
:100C3000C4F20205064606E000F09CFB821BB2F5FA
:100C4000FA7F3FF63FAF28688003F5D567E600F0EE
:100C500091FBC4F2020506462B6F9B073FF5A2AE3F
:100C600000F088FB821BB2F5167FF5D92AE700BF9A
:100C70004FF47053C4F202032DE9F0411A680C4698
:100C800002F00F01A142054609D2E2B21A701968BA
:100C900001F00F03A34269D00120BDE8F081036891
:100CA000980709D54FF46052C4F20202A96890680F
:100CB00020F0F00001439160D9072CD56B684FF408
:100CC0006052C4F20202012B106800F09F80022BD8
:100CD00000F0A0808107DFD54FF46057C4F202070F
:100CE00041F28838BE6826F003010B43BB6000F078
:100CF00041FB6A68012A064672D0022A7BD0B86896
:100D000010F00C0F07D000F035FB811B4145F6D9E0
:100D10000320BDE8F0814FF47050C4F20200E2B24B
:100D20000270016801F00F03A342B5D12B685A0786
:100D300009D54FF46052C4F20202E968906820F4C9
:100D4000E050014391601B070AD54FF46053C4F291
:100D5000020328699A6822F4604141EAC000986061
:100D60000F2000F08DFD0020BDE8F0810368990799
:100D700009D54FF46052C4F202028168906820F0F5
:100D8000F00001439160DA07D1D56B684FF46052EF
:100D9000C4F20202012B10685AD0022B55D08207F0
:100DA0007FF57AAF4FF46056C4F20206B46824F0BF
:100DB000030747EA0301B16000F0DCFA6B68012B1E
:100DC000044641F2883729D0022B32D0B26812F0A3
:100DD0000C0FABD000F0CEFA001BB842F6D997E763
:100DE000B96801F00C03042B95D000F0C3FA801B06
:100DF0004045F5D98CE7BB6803F00C02082A8AD07D
:100E000000F0B8FA801B4045F5D981E782033FF531
:100E100063AF41E780013FF55FAF3DE7B06800F0A9
:100E20000C01042982D000F0A5FA031BBB42F5D9BE
:100E30006EE7B16801F00C03082B3FF477AF00F0C8
:100E400099FA021BBA42F4D962E78101AAD423E7D6
:100E50008003A7D420E700BF4FF46053C4F202031D
:100E600010B49A6802F00C00042807D008280AD0B1
:100E70004FF41050C0F2F40010BC70474FF4905083
:100E8000C0F27A00F8E75C68596804F03F044FF458
:100E9000800292FAA2F0B0FA80F201F48001D0B29E
:100EA00031FA00F2596847F6C07393FAA3F2B2FA26
:100EB00082F047F6C07320D14FF410520B40C0F2BD
:100EC000F402C1B223FA01F3B2FBF4F000FB03F128
:100ED0004FF46053C4F202034FF440305A6890FA62
:100EE000A0F3B3FA83F002F44032C3B222FA03F063
:100EF000421C5300B1FBF3F0BEE74FF490520B409D
:100F0000C0B2C0F27A0223FA00F3B2FBF4F101FBA3
:100F100003F1DDE708B5FFF79FFF4FF46053C4F21C
:100F20000203F0219B6891FAA1F2B2FA82F147F232
:100F3000503203F0F003C9B223FA01F1C0F6000207
:100F400040F29C13525CC2F2000320FA02F01860D7
:100F500008BD00BF08B5FFF7DDFF4FF46053C4F2D2
:100F600002034FF4E052996892FAA2F3B3FA83F2C3
:100F700047F25033D2B201F4E05121FA02F1C0F647
:100F800000035B5C20FA03F008BD00BF08B5FFF763
:100F9000C1FF4FF46053C4F202034FF460429968FA
:100FA00092FAA2F3B3FA83F247F25033D2B201F4C9
:100FB000604121FA02F1C0F600035B5C20FA03F005
:100FC00008BD00BF08B500F0DBF9BDE8084000F03F
:100FD000ADB900BF704700BF2DE9F0418046002841
:100FE00046D090F85130002B3FD0D8F80830D8F8D0
:100FF0000470D8F80C60D8F81050D8F81440D8F81D
:101000001C10D8F82020D8F80000D8F818C01F43CA
:101010003E4335432C43022388F851302143D8F80E
:10102000283005680A4342EA03014FEA1C44D8F815
:1010300024200CF4007C41EA0C0304F00404D8F8EA
:101040002C10144325F040050560036044600161E5
:10105000C269002322F400610122C16188F8523084
:10106000184688F85120BDE8F081FFF7B3FFBCE7D0
:101070000120BDE8F08100BF2DE9F00F00238AB008
:101080009946C4F20209CDF804904FF400674FF47A
:1010900040684FF48059C4F20207C4F20208C4F257
:1010A00002094FF4605C4FF480620397CDF8108022
:1010B000CDF814904FF4A0544FF4C0574FF4E058BB
:1010C0004FF40059E3464FF47055C4F2020CC4F2D9
:1010D0000202C4F20204C4F20207C4F20208C4F21B
:1010E00002090E680292C4F2010BC4F201050694D3
:1010F0000797CDF82080CDF82490CDF800C003E00C
:101100000133102B00F0B380012202FA03F202EA4D
:1011100006049442F4D14A68022A00F09080122A10
:1011200000F08D804FEA430C4FF00308D0F8009098
:1011300008FA0CF76FEA070802F0030707FA0CF742
:1011400008EA090949EA0709571E012FC0F800906B
:101150005FD9112A5DD0122A5BD08F68D0F80C902D
:1011600007FA0CFC08EA090848EA0C0712F0805F4D
:10117000C760C5D0DDF80080D8F844909F0849F4D6
:10118000804C0237C8F844C003F003085BF827908E
:101190004FEA880C4FF00F0808FA0CF829EA080803
:1011A000DDF80490484566D0DDF80890484500F029
:1011B0009380DDF80C90484500F09380DDF81090A6
:1011C000484500F09380DDF81490484500F0938086
:1011D000DDF81890484500F09880DDF81C904845EF
:1011E00000F09880DDF82090484500F08980DDF817
:1011F0002490484500F093804FF41059C4F202093E
:1012000048450CBF4FF009094FF00A0909FA0CFCD8
:1012100033E0D0F808A0CF6808EA0A0A07FA0CF908
:101220004AEA09078760D0F80490C2F3001729EA58
:10123000040907FA03F749EA070747608DE74FEA11
:10124000D30A0AF1080C03F007074FEA870850F8A1
:101250002C900F694FF00F0A0AFA08FA29EA0A09D6
:1012600007FA08F849EA080740F82C705AE70AB06C
:10127000BDE8F00F70474FF0000C4CEA08094BF83E
:101280002790D5F800C0E74307EA0C0C12F4803F22
:1012900018BF4CEA040CC5F800C0D5F804C012F41D
:1012A000003F07EA0C0C18BF4CEA040CC5F804C058
:1012B000D5F808C012F4801F07EA0C0C18BF4CEADE
:1012C000040CC5F808C0D5F80CC0920207EA0C0758
:1012D00048BF2743EF6013E74FF0010909FA0CFC00
:1012E000CBE74FF0020909FA0CFCC6E74FF00309FF
:1012F00009FA0CFCC1E74FF0040909FA0CFCBCE741
:101300004FF0070909FA0CFCB7E74FF0050909FA95
:101310000CFCB2E74FF0060909FA0CFCADE74FF000
:10132000080909FA0CFCA8E7704700BF08B54FF49C
:101330007053C4F2020303201A6842F4007119606A
:101340001A6842F4806119601A6842F48071196069
:10135000FFF764F90F2000F093FAFFF7E5FF002094
:1013600008BD00BF40F27C33C2F200031A68501C73
:101370001860704740F27C33C2F20003186870476F
:101380004FF46053C4F202039A6802F00C00042880
:1013900013D0082816D04FF41052C0F2F4024FF4C4
:1013A0006053C4F2020319499868C0F30313C85C80
:1013B000174B22FA00F21A6070474FF49052C0F2B5
:1013C0007A02ECE75868596810F4800F586801F009
:1013D0003F0214BF4FF490534FF41053C0F38811E1
:1013E0004FF4605014BFC0F27A03C0F2F403C4F2A9
:1013F0000200B3FBF2F303FB01F24168C1F30143C6
:10140000581C4100B2FBF1F2C9E700BF607300084D
:101410009C0100204FF46052C4F2020210B5116C1E
:101420004FF4E04341F08054C4F2000314641A689E
:1014300092B022F4404141F4004401221C60069223
:10144000B0B907924FF4800308210D930E91042345
:101450004FF4A8720721022406A810930C940F924F
:101460001191FFF713FA034628B1002012B010BD06
:1014700005200790E6E70F22019201A84FF4805261
:1014800021460294039304920593FFF7F1FBD0F1F8
:10149000010038BF0020E9E74FF46052C4F20202B5
:1014A0004FF4E043116C30B5C4F2000341F08050BA
:1014B00010641C6824F4404593B045F400421A605F
:1014C0000321102301220024069109920A930E930E
:1014D00004214FF4A8730722022506A80F9307944E
:1014E0000C950D9410911192FFF7D0F9034610B1AD
:1014F000204613B030BD0F222946019201A84FF4B7
:1015000080520295039304920593FFF7B1FB011BF0
:1015100048424841EDE700BF08B50120FFF77AFFD8
:1015200000B108BDFFF776FF0028FAD1FFF7B4FF3E
:101530000028F6D1FEE700BF38B54FF46D43CEF278
:1015400000034FF46054D3F88820C4F2020442F43C
:101550007000C3F888002168002041F00105256073
:10156000A060216843F2100221F0847525F48031D7
:10157000C2F2004221606260256840F29C1225F4AC
:101580008025C2F2000225604FF41051E0604FF058
:101590000060C0F2F40198601160FFF7C7FEFFF72A
:1015A000BBFF236A43F008022262216A21F008008F
:1015B000206238BD2DE9F0410568C7682A690669CF
:1015C000044622F4405E4EEA0701E369806829611F
:1015D000EF686269064346EA020127F4164020F0EC
:1015E0000C0719433943E9606E69A06926F440721B
:1015F00042EA0001B3F5004F4FF480536961C4F231
:10160000010341D09D4200F0B7804FF4A057C4F2CF
:101610000107BD4200F0B080FFF79CFC666800EB5C
:10162000800202EB8200B10048F21F56B0FBF1F3DA
:10163000C5F2EB16A6FB03277A091701FFF78AFC10
:10164000616800EB80008B0000EB8002B2FBF3F8D6
:10165000FFF780FC616800EB800000EB80028B00EC
:10166000B2FBF3F1A6FB01025309642000FB138CCB
:101670004FEA0C1E0EF13208A6FB0816C6F34316FD
:101680003743AF60BDE8F0819D423DD04FF4A05795
:10169000C4F20107BD4237D0FFF75CFC616800EB84
:1016A000800202EB82004B0048F21F56B0FBF3F7BA
:1016B000C5F2EB16A6FB07014A091701FFF74AFC22
:1016C000636800EB80005A0000EB8001B1FBF2F888
:1016D000FFF740FC636800EB800000EB80015A00DC
:1016E000B1FBF2F3A6FB03106422410902FB118C4B
:1016F0004FEA0C1808F13208A6FB0826C6F3431679
:101700003743AF60BDE8F081FFF740FC676800EB4E
:101710008003790003EB830048F21F56B0FBF1F21F
:10172000C5F2EB16A6FB02177B091F01FFF72EFC83
:10173000616800EB80004B0000EB8002B2FBF3F825
:10174000FFF724FC616800EB800000EB80024B0097
:10175000B2FBF3F1A6FB01204309642202FB138CC8
:101760004FEA0C1808F13208A6FB0836C6F34316F8
:101770003743AF60BDE8F081FFF708FC666800EB17
:10178000800707EB8701B20048F21F56B1FBF2F366
:10179000C5F2EB16A6FB03304709FFF7F7FB6168BC
:1017A00000EB80028B0002EB8200B0FBF3F8FFF746
:1017B000EDFB616800EB800202EB82008B00B0FB66
:1017C000F3F1A6FB0102500964233F0103FB108CD7
:1017D0004EE700BF704700BF10B5044628B390F82D
:1017E0003930FBB12068022284F83920C16821F425
:1017F0000053C3602046FFF7DDFE2068026922F433
:1018000090410161436923F02A024261C1680023CB
:1018100041F400520121C26084F83A30184684F83D
:10182000391010BDFFF7D6FFDCE7012010BD00BF67
:1018300070B5114C2368DA68910715D4D9684A0746
:1018400009D56FF004050D4E1D615D6A3268A81A56
:10185000B0F57A7F00D270BDFFF784FD2368356054
:1018600005F57A759D6370BD6FF00200186102F096
:101870007FFB2368E2E700BF800700208003002091
:1018800038B54FF46053C4F2020340F280741A6C0E
:1018900042F008001864196A41F008051D621A6ACE
:1018A00022F008001862FFF76BFD40F29C13C2F2B1
:1018B00000034DF683611D68C4F21B31A1FB0512C4
:1018C000C2F20004900C4FF4406300254FF0FF3249
:1018D000411EC4F200032046E2602360616025617E
:1018E000A5606561FEF72AFF41F631013220C0F69E
:1018F0000001FEF7A1FF4FF46140CEF200004FF46B
:101900008023436029462046FEF7A6FE0421204698
:10191000FEF7A2FE2368596A01F57A729A63D868C5
:1019200040F28032C2F2000240F00400D860116040
:10193000284638BD2023C4F20E2301221A607047C6
:10194000704700BF0368D3F828C01B68C1F804C003
:101950002DE9F001C3F30620C3F3054403F4800826
:10196000E7B2C6B203F07F054FEA18480F704E7019
:101970008D7081F80880BAB93F0936092D0907EB47
:10198000870204F00F0406EB860600F00F0005EB5B
:10199000850503F00F0304EB420700EB460603EB5B
:1019A00045050F704E708D700020BDE8F001704746
:1019B00003685B68F0B4C3F30420C3F30744E6B2E2
:1019C000C7B203F03F05C3F3423CCE704F708D7039
:1019D00081F800C0BAB93F09BA002D093609D719F4
:1019E00006EB860604F00F0400F00F0005EB8502FD
:1019F00003F00F0304EB460600EB470703EB420539
:101A0000CE704F708D700020F0BC704738B5036801
:101A1000DA68044622F0A000D860FFF7ABFC054668
:101A200005E0FFF7A7FC421BB2F57A7F05D82168D5
:101A3000CB689B06F5D5002038BD032038BD00BF1C
:101A400038B50368DA685106044601D5002038BD70
:101A50004FF0FF30D860FFF78DFC05462168CB685A
:101A60005A06F3D4FFF786FC421BB2F57A7FF5D90C
:101A7000032038BDF8B50446002841D0437F002B31
:101A80003BD0216802226277CA2353224B62204650
:101A90004A62FFF7D5FF2368002828D19968276993
:101AA0006669E56821F4E00C2CF040029A609A68BF
:101AB000616842EA010E4EEA07073E439E601D61DF
:101AC0001D69A26845EA02411961DD6825F08002BE
:101AD000DA60196C21F480251D641A6CA56942EA4C
:101AE0000501FF2219645A6201236377F8BDFF20C4
:101AF0000421586201206177F8BDFFF721FFC0E79C
:101B00000120F8BD037F012B70B5044600F09E80D4
:101B10000120022520776577002A2BD04D78CA78DE
:101B20008B780978280240EA02451D4345EA413591
:101B300021685323CA224A6220464B62FFF780FF86
:101B40002368002840F0848025F07F4525F0C00000
:101B50005860D96821F08002DA609D6815F0200590
:101B600000F084800022FF20012158621046617736
:101B7000227770BD4B7803F01002D0B200286FD1ED
:101B8000CA780025092A1AD90A3A4CF6CD40D2B2B1
:101B9000CCF6CC40A0FB0250C0F3C0050120092ABE
:101BA0000BD925B10A3AD2B20220092A05D9143A32
:101BB00002F0FF020230092AF9D80501EDB22A43EA
:101BC0001204092B60D90A3B4CF6CD40DBB2CCF6AF
:101BD000CC40A0FB0350C0F3C0050120092B0BD95A
:101BE00025B10A3BDBB20220092B05D9143B03F0D7
:101BF000FF030230092BF9D80501EDB288782B4399
:101C00001B02092842D90A384CF6CD46C0B2CCF6A0
:101C1000CC46A6FB005601250928C6F3C0060BD901
:101C200026B10A38C0B20225092805D9143800F0B7
:101C3000FF0002350928F9D82D01EDB2097842EAF2
:101C400041321343284343EA000571E7022070BD87
:101C5000FF2004210022586201206177227770BDA5
:101C600003F0EF030A33DBB24B7089E72046FFF73E
:101C7000CDFE236800283FF475AFFF225A6204238B
:101C800001206377257770BD0025B7E70025D5E7EC
:101C9000F8B5037F012B04460D4600F0B380012008
:101CA0000221207761772668002A40F09B80B16886
:101CB0002B7811F0400E15BF95F808E085F808E084
:101CC0004FEA0E4E2668092B40F2B6800A3B4CF6CE
:101CD000CD42DBB2CCF6CC42A2FB03010127092B9B
:101CE000C1F3C0000BD920B10A3BDBB20227092B9C
:101CF00005D9143B03F0FF030237092BF9D83A0149
:101D0000D7B26A7847EA03010B04092A40F29680A9
:101D10000A3A4CF6CD40D2B2CCF6CC40A0FB0271D0
:101D20000120092AC1F3C0070BD927B10A3AD2B260
:101D30000220092A05D9143A02F0FF020230092ACA
:101D4000F9D80101CFB2A87817433A02092877D908
:101D50000A384CF6CD47C0B2CCF6CC47A7FB007191
:101D6000C1F3C007012109280BD927B10A38C0B235
:101D70000221092805D9143800F0FF000231092892
:101D8000F9D80F01F9B243EA0E031A43084342EAB5
:101D900000075323CA21716220467362FFF750FE89
:101DA0002368002830D107F07F3727F0FE47EA6824
:101DB0002D691F60986820F480219960986802431B
:101DC0002A439A60DD6825F08001D960986810F098
:101DD000200524D0FF215962002201231046637799
:101DE0002277F8BDB76817F0400115D1297226682F
:101DF00068782F78AB78020242EA0740184340EA3D
:101E00000107C6E70220F8BDFF2159620022042322
:101E1000012063772277F8BD2A7A1104E8E720468B
:101E2000FFF7F4FD23680028D4D0FF200422586275
:101E3000012062772577F8BD002762E7002782E757
:101E40000021A0E77047000038B590F90030013359
:101E500004460D4604D106480649352201F050FFDC
:101E600063680DB1E26800E022699BB2138038BD5F
:101E7000767300088E73000810B590F900300133B6
:101E8000044604D1064807493F2201F039FFA36800
:101E90001A6863681A4214BF0120002010BD00BFF9
:101EA000767300088E73000810B5064B036003F1CB
:101EB00018024C330446C26503665C3001F06AFECA
:101EC000204610BDB8770008A0F15C00FFF7ECBF1A
:101ED000A0F16000FFF7E8BF10B5044602F0B3FCC4
:101EE000204610BD70B504460E461546002114224A
:101EF00003F04AF9204631462A4601F083FF204686
:101F000070BD000030B5314B314918689B8885B0F1
:101F100002903048ADF80C3001F088FE4FF07E5052
:101F200002F018F82C4802A900F008FA2B4B1860B0
:101F30001C4640B9284800F00FFA294902462548B6
:101F400001F074FE03E02348264901F06FFE2649A4
:101F5000204801F06BFE4FF07C5001F0FBFF23495D
:101F60001C4801F063FE4FF07C5001F0F3FF204964
:101F7000184801F05BFE4FF07C5001F0EBFF164873
:101F800000F062FA2060D0B91A49124801F04EFE02
:101F90004FF07E5001F0DEFF0F4800F081FA054659
:101FA0000D4800F097FA04460B4800F0ADFA1249CC
:101FB00000902A462346074801F038FE03E0054812
:101FC000084901F033FE05B030BD00BF7073000852
:101FD00009740008740600205404002094050020B1
:101FE0002F74000846740008777400088274000893
:101FF00073740008847400089F74000808B50748CB
:10200000FFF73AFF48B10649064801F00FFE0648BF
:102010000121BDE80840FFF717BF08BD00050020FB
:10202000C574000874060020980300200448054980
:10203000062240F2465380E80E00FEF799BB00BF2F
:10204000F0040020003000400148FEF7B3BB00BFA1
:10205000F00400200148FEF7C5BB00BFF0040020DB
:1020600008B50F48FEF7E6FB042813D8DFE800F0B8
:102070000306090C0F000B480B490DE009480B49FA
:102080000AE008480A4907E006480A4904E005480A
:10209000094901E003480949BDE8084001F0C6BD0F
:1020A000F004002074060020D6740008FD740008B7
:1020B00022750008457500085A7500086D750008FE
:1020C00070B552488CB00121FFF7BEFE5048012187
:1020D000FFF7BAFE01214F48FFF7B6FE4FF07E50E2
:1020E00001F038FF49480021FFF7AEFE48480021C3
:1020F000FFF7AAFE47480021FFF7A6FEFFF796FF6D
:10210000FFF7AEFFFFF7A0FF01214348FFF79CFE5A
:10211000FFF7F8FE03A800F011FA012103A80A4610
:1021200000F07CFD3D4C3E4E226833689A4264DCF0
:10213000FFF790FFFFF762FF3A493B4801F076FD59
:1021400003A83A4942F20F7200F002FA384B0546F2
:102150001860354825B9374901F068FD256046E02B
:1021600033683549226801F061FD2368013323603B
:102170003DE0FFF76FFF31492B4801F057FD304933
:10218000022203A800F016FA2E4800F0E5F80446F3
:102190002C4800F0E1F804F048F92146024603A873
:1021A00000F008FA2849204801F040FD03A827491B
:1021B000402200F01DFA0028B4DB03A82449402285
:1021C00000F016FA0028ADDB224C03A8214640227D
:1021D00000F00EFA0028A5DB009413481E491B4AA4
:1021E0001B4B01F023FD4FF07E5001F0B3FE03A81E
:1021F00000F0DBF90028BCD194E707A801F04AFA07
:1022000003A800F019FD00200CB070BD9803002059
:10221000AC030020C003002084030020A0010020A4
:10222000A40100207D75000874060020A375000835
:1022300094050020B1750008D175000801760008EA
:10224000107600085404002013760008D403002000
:1022500098050020140500202476000810B50446D7
:10226000FFF722FE204602F0EEFA204610BDA0F154
:102270005C00F3E7A0F16000F0E7000037B516233B
:1022800014241D4D1D488DE8180007210622052342
:1022900000F044F8002328460221032201F062FBEB
:1022A0002846174D1749184A02F0D8FA2246284600
:1022B000002102F069FF2846152101F0CFFD002121
:1022C0000A461248124DFFF70DFE01210022114867
:1022D000FFF708FE042100220F48FFF703FE2846FF
:1022E0000021224602F050FF2846102103B0BDE82D
:1022F000304001F075BD00BF1806002054040020D6
:1023000084030020A91E00089401002098030020E7
:1023100000050020AC030020C003002037B59DF964
:10232000185000959DF91C500195044600F0B4FE2C
:102330000023204684F8983003B030BD08B501234F
:1023400003760023CA5CC2540133062BFAD100F095
:1023500085FF002008BD000010B588B006AA09213D
:102360000623044600F003FF9DF8192000929DF813
:102370001A2001929DF81B2002929DF81C200392C6
:1023800084349DF81D2004929DF81830034A20469D
:10239000142103F06DFF204608B010BD62760008DE
:1023A00030B5ADF52D7D0D46044601A800F042FE86
:1023B00001A8294600F0B6FD431C3DD09DF80B3026
:1023C0009DF80A201B0443EA02639DF80D20134385
:1023D0009DF80C2043EA0223A3609DF813309DF87A
:1023E00012201B0443EA02639DF8152013439DF855
:1023F000142043EA022323619DF817309DF816202C
:102400001B0443EA02639DF8192013439DF818202A
:1024100043EA0223E3609DF80F309DF80E201B0471
:1024200043EA02639DF8112013439DF8102043EA0C
:1024300002236361002400E0044609A801F02AF9A0
:1024400020460DF52D7D30BD10B5037E04463BB909
:10245000204600F0E6FE80F00100C0B2404210BD10
:1024600043F69821FFF79CFF0028F1DA10BD07B56D
:10247000042301AA00F07BFE9DF804309DF807209C
:102480008DF804208DF807309DF806209DF8053062
:102490008DF806308DF80520019803B05DF804FB37
:1024A0001FB50F210446FFF7E2FFC0F30742009279
:1024B000C0F30722483401920346C2B2029220467A
:1024C0001421034A1B0E03F0D3FE204604B010BDB6
:1024D000807600081FB505210446FFF7C8FFC0F34A
:1024E00007420092C0F307225C3401920346C2B255
:1024F000029220461421034A1B0E03F0B9FE204627
:1025000004B010BD807600081FB501210446FFF716
:10251000AEFFC0F307420092C0F30722703401926D
:102520000346C2B2029220461421034A1B0E03F056
:102530009FFE204604B010BD8076000810B504460A
:1025400000F056FB04F1100001F0A0F8204610BD89
:10255000F7B50368002B04460F46154608DB04F167
:102560001006304639462A4601F096F848B105E093
:10257000C06801F046F800282060F0DA4FF0FF3024
:1025800011E03046E768246801F0ACF842F21073BD
:1025900002460093384621462B4600F0CAFF80F0E1
:1025A0000100C0B2404203B0F0BD0346C0681968E4
:1025B00000F0B3BF70B504460E462379C0682168A9
:1025C00015460BB9A26801E04FF0FF32002300F07E
:1025D000C0FE031E09DBAB42E06821683246A8BF9B
:1025E0002B46BDE8704000F010BF4FF0FF3070BDCB
:1025F00070B504460E462379C068216815460BB9AC
:10260000A26801E04FF0FF32002300F06DFE031ED0
:1026100009DBAB42E06821683246A8BF2B46BDE823
:10262000704000F036BF4FF0FF3070BD38B5456ADE
:10263000054B036004462DB1284600F0FDFA2846FC
:1026400002F001F9204638BDA076000810B5044616
:10265000FFF7ECFF204602F0F6F8204610BD38B533
:10266000002504464560012002F054FD206000B1C1
:102670000570204638BD10B50446006808B102F068
:1026800051FD204610BD2DE9F047066804468A46F4
:102690009146C6B1476807EB020808F1010002F055
:1026A00039FD054678B131463A4602F062FD5146A1
:1026B0004A46E81902F05DFD002305F8083030466F
:1026C00002F030FD2560BDE8F0870000F8B5064651
:1026D0000F463368DD5D7C1CEDB105F0C002C02AF9
:1026E00009D1195D05F03F05304641EA0521FFF7A4
:1026F000EDFFB81CF8BDB368371D23B13846074954
:102700000122FFF7C0FF3168384621442A46FFF70F
:10271000BAFF6719DDE72046F8BD00BF82740008E4
:1027200038B5074B044640F80C3B0D4601F04EFB14
:10273000002384F820306362E561204638BD00BF85
:10274000A07600082DE9F043CF7817F00F0785B089
:1027500080460C4645D14B7991F804908E7943EA36
:102760000929CB790C2543EA062619F1FF3935D31F
:1027700002A8FFF774FF294601A80194FFF7A6FFFE
:10278000051D02A8FFF777FFEFE702A8FFF767FF35
:10279000294601A80194FFF799FF00F10802A31848
:1027A000A55C5B78225C43EA0525231800F10A0149
:1027B0005B7843EA0223012B0D440CD16218615C63
:1027C000D37843EA01635178927843EA014343EABC
:1027D0000223C8F8043002A8FFF74DFF16F1FF36B8
:1027E000D3D2384605B0BDE8F08330B50446ADF528
:1027F000077D01A800F04AFF606A01A906AA4FF40C
:10280000007300F02BF9051E11DB06A804F1080186
:10281000022202F09EFC50B9204606A92A46FFF784
:1028200091FF08B9042300E0022384F8203001A8B6
:1028300000F030FF0DF5077D30BD00002DE9F047B9
:1028400088B00E46044600210C2202A81D4602F064
:102850009BFC284B1868019001238DF80A308DF8F5
:102860000D3002AA03CA306010687160B06003F0D6
:10287000AFFB0312607223722389338006A8FFF72F
:10288000EEFE0C2405962B7833B328462E2103F058
:10289000B4FD671C8146DDF814A070B9284603F02A
:1028A000C4FD0AF80400804605982946384442468B
:1028B00002F05FFC07EB08040EE0C5EB00080AF825
:1028C0000480059829463844424602F052FC09F13A
:1028D000010507EB0804D6E7059B019800221A556D
:1028E000631CF05006A8FFF7C6FE601D08B0BDE8E7
:1028F000F08700BF8C76000870B5436AC6B0044606
:102900000D4633B9102001F08DFF064600F070F837
:102910006662606A00F072F8606A002140F2DC5280
:1029200000F07CF901A800F0B1FE3522124901A89F
:1029300000F0B2FE666A03F04BFBC0F30E013046B6
:1029400000F0CAF806A92B4620464FF48072FFF724
:1029500075FF0C34034601A9A06906AA00F025F909
:10296000204601F02BFA204601F0F4F901A800F00E
:1029700091FE46B070BD00BF9076000838B590F863
:102980002030044633B98361C169FFF7B5FF0123E5
:1029900084F8203004F10C05284601F0F7F9B0F571
:1029A0007A7F10DD284601F0FFF9A3690133012B7E
:1029B000A36101DD032304E02046E169FFF79CFFEA
:1029C000012384F8203038BD002310B50446C161CE
:1029D00080F820302046FFF7D1FF2046FFF705FFA3
:1029E00094F820000128F5D0031F5842584110BD2B
:1029F00010B5044600F0FCF8204610BD10B5036881
:102A0000002B044603DAC06800F0FBFD2060E0689C
:102A10002168022200F045FC80F00100C0B2404273
:102A200010BD000030B514468BB013785278009278
:102A3000A2780192E27802920D4605A81121064A79
:102A400003F016FC22796379284605A943EA02229D
:102A500000F022FE0BB030BD80760008F7B50446CA
:102A60000F462379C068216816460BB9A26801E0B9
:102A70004FF0FF32082300F037FC051E02DA4FF05A
:102A8000FF3018E008232168E0686A4600F001FD85
:102A90006A4620463946FFF7C5FF9DF806209DF897
:102AA0000730083D43EA0223AB42E8D8E0682168DA
:102AB000324600F0EEFC03B0F0BD13B502EB01218D
:102AC0001C0A8DF8053089B201AA02238DF8044052
:102AD00000F01EFB02B010BD38B50368002B0446A1
:102AE0000D4606DB75B1E068216840F20442ABB2E6
:102AF00011E0C06800F085FD00282060F2DA4FF098
:102B0000FF3038BD0B4AE068136821680133136059
:102B100040F204429BB2FFF7D0FF2168E068022236
:102B200000F0BFFBE0682168012200F041FC0020BA
:102B300038BD00BF8C0600202DE9F3470646084645
:102B40000F4600F0CFFD3168D6F80C900C0204F26D
:102B50000C440546A4B24FF00008284601F08AFE56
:102B60000DF1040A2E210AF80800284603F045FC5E
:102B700030B108F10108B8F1040F00F10105ECD102
:102B8000214652464846042300F0C2FA3846F5680A
:102B9000346800F0A8FD214683B24FF482622846D3
:102BA000FFF78BFF02B0BDE8F0872DE9F041044646
:102BB0001D462379C0680F46164621680BB9A268E6
:102BC00001E04FF0FF326B1E00F0C3FB00280BDB6F
:102BD00020463946FFF7B0FFE068216832462B46B1
:102BE000BDE8F04100F011BC4FF0FF30BDE8F081CE
:102BF00010B54FF0FF330360012303718360054B71
:102C00001B68C360044613B9034801F067F8204607
:102C100010BD00BF90060020A876000801718260F8
:102C2000704708B50346C068196800F0D1FB80F012
:102C30000100C0B2404208BD10B50446FFF7F1FFE5
:102C4000204610BD0B69F0B5C0F806304B69C0F8DE
:102C5000163000F1160701F1F0034FF0FF361C7833
:102C6000FF2C28D08D18AB4225D25D1C0CB3062C4E
:102C700003F1020593F801E015D007D8012C0ED01E
:102C8000032C13D12B68C0F80E300FE0352C04D084
:102C9000362C0BD12B683B6008E09E7806E02B6851
:102CA000C0F8123002E02B68C0F80A3005EB0E03C2
:102CB000D5E72B46D3E73046F0BDEF2A08B50346EB
:102CC0000CDD0A78022A09D1081D042203F134011F
:102CD00002F03FFAB0FA80F0400908BD002008BDBC
:102CE00070B50C46631A93420ADAD0F8A43214F88D
:102CF000015B5E1C0344C0F8A46283F84C50F1E70A
:102D000070BD10B5002909DDD0F8A4325C1C034465
:102D1000C0F8A442013983F84C20F3E710BD00004D
:102D20002DE9F041274F3D4686B04FF0000804469C
:102D3000C0F8A48255F8040B019001A90422204692
:102D4000FFF7CEFF404601F097F8064603F040F942
:102D50003044030E84F83430030C84F83530030A11
:102D600084F8363084F8370004F134012046042218
:102D7000FFF7B6FF204614214246FFF7C2FF204668
:102D800021460622FFF7ACFF2046CA214246FFF744
:102D9000B8FF02AB0C371E46286869681A4603C2A2
:102DA0000835BD421346F7D128681060AA889A807A
:102DB000204631460E22FFF793FFD4F8A40206B056
:102DC000BDE8F081E1760008F0B5D0F8A4524719CB
:102DD0006E1C002BC0F8A462044687F84C100BDD73
:102DE00034440235C0F8A45284F84C301146BDE892
:102DF000F0401A46FFF774BFF0BD00002DE9F04126
:102E00002D4E354686B000270446C0F8A47255F80A
:102E1000120B019001A920460422FFF761FF204612
:102E200004F134010422FFF75BFF04F116083A466F
:102E300020460C21FFF765FF204641460422FFF79C
:102E40004FFF3A4620460421FFF75BFF204621460C
:102E50000622FFF745FF3A462046CA21FFF751FFF9
:102E600002AB1A361F46286869681A4603C208353D
:102E7000B5421346F7D1286810602A791A712046A6
:102E800039460D22FFF72CFF2046A21D32210423D4
:102E9000FFF79AFF2046362142460423FFF794FFAE
:102EA000D4F8A432581CC4F8A4021C44FF2384F8AC
:102EB0004C3006B0BDE8F081E176000870B50446FC
:102EC00086B001A804F14C0500F0E0FBE06901A91F
:102ED0002A464FF41673FFF7C1FD061E1CDB204681
:102EE00029463246FFF7E9FEB0B120462946324670
:102EF000FFF7A8FE02280AD12046FFF77FFF04F162
:102F0000200103462A46E069FFF74FFE04E005284A
:102F100004BF012384F8383001A800F0BBFB06B0E1
:102F200070BD00002DE9F743404B04461868C4F813
:102F3000A8028846002874D009212246062300F002
:102F400016F941F2873741F288331020B845D4BFD3
:102F500047461F4601F066FC0546FFF749FDE5615F
:102F60002846FFF74BFDE069002140F2DC52FFF7F5
:102F700055FE02AA002542F8045D0423D4F8A802F5
:102F80000F2100F0C5F804F120094421E069FFF7A2
:102F9000A3FD48462649432200F07EFB2E4684F8D6
:102FA000385094F8383093BB012D05D0022D17D03E
:102FB000002DF9D1A56428E02046FFF7B1FE04F109
:102FC0003C050346494604F14C02E069FFF7EDFD7C
:102FD000284600F0F3FE284600F0BCFE0225E0E79C
:102FE0002046FFF76BFF04F13C0000F0CFFEB84233
:102FF000D7DD98FBF7F2A36C01339342A364A2BF21
:10300000012384F838304FF0FF360125C9E7E46921
:103010002CB12046FFF710FE204601F014FC30468C
:1030200001E04FF0FF3003B0BDE8F08390060020D0
:103030000077000810B50446203000F027FB04F1AB
:103040003C0000F0C3FE204610BD000038B590F9EA
:103050000030013304460D4604D1064806493522A6
:1030600000F04EFE63680DB1E26800E022699BB299
:10307000138038BD767300088E73000838B51422AB
:1030800004460D46002102F07FF82046294600F054
:10309000E5FE204638BD00002DE9F347044600F167
:1030A00020068A4604F134059DF9281030469846DA
:1030B0009146FFF7E3FF9DF92C102846FFF7DEFF4E
:1030C000302001F0AFFB4FF0FF330746009351462D
:1030D00043464A4600F06EFC00223846E76108216C
:1030E00000F0C8FCE069084900F0BAFC3046012154
:1030F000FFF7ACFF28460121FFF7A8FF034B20464E
:103100001C6002B0BDE8F08780841E00900600209D
:103110002DE9F0470546894690469A46002409EB7A
:1031200004065445B6B220DA05F1200738460021DE
:10313000FFF78CFFE8690368F0211B689847E8698E
:103140000368310A1B689847E8690368F1B21B6895
:103150009847E86918F8041003681B6898473846D0
:103160000121FFF773FF0134D9E7BDE8F0872DE9AE
:10317000F0470546894690469A46002409EB040626
:103180005445B6B221DA05F1200738460021FFF791
:103190005DFFE86903680F211B689847E8690368C9
:1031A000310A1B689847E8690368F1B21B689847C1
:1031B000E869036800211B689847012108F80400AA
:1031C0003846FFF743FF0134D8E7BDE8F08770B514
:1031D000044604260025204601F04CFB2E21054321
:1031E000204603F00AF928B1013E4FEA052500F117
:1031F0000104F0D1284670BD07B5130E8DF80430D8
:103200008DF80720C2F30723C2F307428DF805208B
:103210008DF8063001AA0423FFF77AFF03B05DF8AA
:1032200004FB10B5044682680F21FFF7E5FF204636
:1032300022690121FFF7E0FF20460521E268FFF740
:10324000DBFF012010BD07B502AB03F8042D1A46C1
:103250000123FFF75DFF03B05DF804FB70B500F1DB
:103260003405044601212846FFF7F0FE28460021D8
:10327000FFF7ECFE022000F05BFE28460121FFF77D
:10328000E5FE962000F060FE204600218022FFF738
:10329000DAFF2046224609210623BDE87040FFF7E9
:1032A00037BF002908B508DB090201F5806101F488
:1032B0007F41FFF7C8FF012008BD002008BD07B50A
:1032C00002EB012189B201AA0223FFF750FF9DF80A
:1032D00004309DF805208DF804208DF80530BDF8E8
:1032E000040003B05DF804FB2DE9F0430F1E85B028
:1032F00006461546994602DA4FF0FF3026E001A84F
:1033000000F064FD01A800F059FD01A800F022FDC5
:103310004FF000083046394640F22642FFF7CFFF13
:10332000044630B13046394640F22642FFF7C7FF27
:1033300080464445EED14C4507DC6B1CE8D001A823
:1033400000F024FDA842E3DDD6E7204605B0BDE845
:10335000F083F0B50E1E85B0054614461F4602DA0E
:103360004FF0FF3018E001A800F030FD01A800F098
:1033700025FD01A800F0EEFC284631464FF484629A
:10338000FFF79DFFB84207DC631CF5D001A800F0F1
:10339000FDFCA042F0DDE3E705B0F0BD07B5012379
:1033A00001AAFFF7E4FE9DF8040003B05DF804FBFA
:1033B000090238B501F20144A4B221460546FFF7DF
:1033C00042FF28462146FFF7E9FF0028F9D138BD22
:1033D00070B50E1E054614DB3402A4B204F203419C
:1033E00089B2FFF7DBFF70B1284631461022FFF7A4
:1033F000DFFF04F2024189B22846FF22FFF723FFD4
:1034000001E0002070BD012070BD2DE9F84FB1F141
:103410000008064691461C4637DB40F22442FFF77F
:103420004EFF08F10805ED02ADB2C0F30A012944D0
:1034300089B205F5006A0B195345074610DDC1EB4B
:103440000A0A1FFA8AFB30464A465B46FFF760FECF
:10345000CBEB04033046294609EB0A029BB202E09B
:1034600030464A46A3B2FFF753FE3B193046414669
:103470009BB240F22442FFF720FB30464146202217
:10348000FFF796FF2046BDE8F88F4FF0FF30BDE80C
:10349000F88F2DE9F84FB1F10008064691461C4619
:1034A00037DB4FF48562FFF70AFF08F10C05ED02E8
:1034B000ADB2C0F30A01294489B205F5006A0B19BF
:1034C0005345074610DDC1EB0A0A1FFA8AFB304656
:1034D0004A465B46FFF74BFECBEB040330462946DA
:1034E00009EB0A029BB202E030464A46A3B2FFF75C
:1034F0003EFE3B19304641469BB24FF48562FFF7D2
:10350000DCFA304641464022FFF752FF2046BDE834
:10351000F88F4FF0FF30BDE8F88F090201F2034148
:1035200008B589B2FFF73AFFA0F117035842584196
:1035300008BD2DE9F04F85B00E1E0746914698460E
:103540000E9D01DA002059E03402A4B204F5806136
:1035500001F47F410122FFF776FE38463146012211
:10356000FFF726FF04F20C44A4B24FF0000B4846CC
:1035700001F080F90DF1040A2E210AF80B004846EB
:1035800002F03BFF30B10BF1010BBBF1040F00F176
:103590000109ECD13846214652460423FFF7B8FD15
:1035A00031464FF482621FFA88F33846FFF785FAF6
:1035B00002F00EFD6FEA80436FEA93439BB23846F8
:1035C000314640F20442FFF778FA31460422384689
:1035D000FFF7EEFE504600F0F9FB504600F0EEFB20
:1035E000504600F0B7FB38463146FFF796FF28B942
:1035F000504600F0CBFBA842F5DDA3E705B0BDE8DF
:10360000F08F38B505460024210201F20341284617
:1036100089B2FFF7C3FE28B10134042CF4D14FF076
:10362000FF3038BD204638BD70B5084694B00D4611
:103630001646FFF7CCFDC0F307430093C0F3072302
:1036400004460193C3B20293112105A80E4A230E2A
:1036500002F00EFE05A8294602F0DDFE10B9346026
:1036600001240EE000210AA8FFF75AF80AA829460B
:10367000FFF7AAF9044608B10B9B33600AA8FEF7CE
:10368000D5FF204614B070BD80760008002202707D
:10369000026170477047000030B5104B044618684F
:1036A00087B0154610B94FF0FF3015E005AAFFF7B7
:1036B000BBFF0028F7D0059BC3F307420092C3F37A
:1036C00007220192DAB2029220461021044A1B0E10
:1036D00002F0CEFD2561002007B030BD900600202D
:1036E000807600087047006970470000F0B4104B06
:1036F0000169426990F9197006688568C468D960E3
:103700001A6100217A1C1E605D609C60996109D07D
:1037100090F91800421C08D00C225A610448F0BCF1
:10372000FEF75AB808205861F8E704215961F5E717
:10373000BC070020F8B50E4604463E493046154603
:1037400000F0DCFB3C490746284600F0D7FB014669
:10375000384600F0C1FB431C206063D04FF4805317
:10376000C4F20103984248D04FF48841C4F20001EA
:10377000884237D04FF4A052C4F20102904209D1DE
:103780004FF46050C4F202000222436C43F0200167
:10379000416462602749304600F07CFB2846264998
:1037A00000F078FB701C03D03046012100F0DAFCF9
:1037B000691C03D02846012100F0D4FC00204FF4FE
:1037C0001653E06020616061A3602676657620462E
:1037D000FFF78CFF4FF488412268C4F200018A424F
:1037E00016D0F8BD4FF46050C4F202000122036C01
:1037F00043F4003101646260CCE74FF46050C4F2DE
:1038000002000022436C43F0100141646260C1E792
:103810000A4B0B4821461C2201241C60BDE8F840DD
:1038200001F0A7BC07480849502200F069FA206857
:1038300094E700BF3C7A0008F47900089406002061
:10384000F8070020207700083C77000810B440F209
:10385000A46340F29864C2F200044068C2F200031C
:1038600044F82020196010BC704700BF026813683C
:103870009806FCD55068024BC1051A60C80D704708
:10388000BC070020026813681B06FCD5C905024B63
:10389000C80D1A6050607047BC07002038B5002280
:1038A000026042600B782F2B044601D0204638BDC1
:1038B00048780028FAD0481C20604B782F2B12D073
:1038C000A3B18D1C114600E042B125602A782B4639
:1038D000013101352F2AF7D10133236000F06EFF4B
:1038E0006060204638BD03461146F5E71946F5E706
:1038F00000687047406808B520B100F07FFF431EA4
:103900005842584108BD00BF10B50446FFF7F2FF0A
:1039100000B1606810BD00BF406808B528B100F074
:103920006DFFD0F1010038BF002008BD10B504467E
:10393000FFF7F2FF10B1606800B1043810BD00BF9E
:103940004068003018BF0120704700BF00F0BEB9CA
:10395000A0F15C00FFF7FABF00F0B4B9A0F15C0081
:10396000FFF7FABF38B504461D4600F07DF9294639
:1039700004F15C0000F034F947F2B073C0F60003C4
:1039800003F1080103F1200254332160E26523664C
:10399000204638BD014B0360704700BF187800080F
:1039A000034B10B50446036000F04DFF204610BDE8
:1039B00018780008F0B50446174F44F2402083B051
:1039C000C0F20F000025261D2760E06208274FF097
:1039D000FF306560A560E56025616561A561E56111
:1039E00084F8205084F8215084F8225084F8235021
:1039F0006762A5620090304600F030FD3046616A93
:103A0000A26A2B4600F0C2FD3046E16A00F0E6FDF6
:103A1000204603B0F0BD00BF1878000870B5094D0E
:103A20002B68834204460BD0061D416A826A00233C
:103A3000304600F0ABFD3046E16A00F0CFFD2C606F
:103A400070BD00BFA806002038B504460D46FFF73C
:103A5000E5FF201D2946BDE8384000F01DBE00BF2F
:103A600040F2A863C2F200030022C1621A60FFF7AD
:103A7000D5BF00BF10B440F2A863C2F20003826257
:103A80000446002241621A6010BCFFF7C7BF00BFA6
:103A9000002070472DE9F0418E18B1420F460546CF
:103AA00030D003680C46BA1BD24314F8011B5B6A82
:103AB00002F00108984701301ED0A6421FD0B8F18D
:103AC000000F09D0286814F8011B436A284698475C
:103AD000013011D0A64212D02A6814F8011B536A93
:103AE000284698470130284606D02A6814F8011B5A
:103AF000536A98470130EDD1E01BBDE8F081F01B1F
:103B0000BDE8F0810020BDE8F08100BF2DE9F04163
:103B10008E18B1420F46054631D003688A1BD14347
:103B20009C6A01F00108A047431C3C4624D03C4657
:103B300004F8010BA6421CD0B8F1000F06D02B6888
:103B400028469A6A9047431C0FD115E029682846F9
:103B50008B6A98470246511C28460DD004F8012B69
:103B600029688B6A9847421C06D004F8010BA642CC
:103B7000ECD1F01BBDE8F081E01BBDE8F081002036
:103B8000BDE8F0810020704700207047002070479A
:103B90000020704747F62803C0F6000303F108022F
:103BA0003C3310B5044680E80C00406900F0CCFEC0
:103BB000204600F081FD204610BD00BFA0F10400AA
:103BC000FFF7E8BF10B50446FFF7E4FF204600F01A
:103BD0003AFE204610BD00BFA0F10400FFF7F2BF7F
:103BE00030B585B0044600F08DFD47F62803C0F6D9
:103BF000000303F1080000253C3347F2403184E81C
:103C000009002246C0F60001656101A802F062FBCE
:103C100047F67001C0F6000101A801F049F82946F5
:103C2000606102F051FA204605B030BD0EB430B5E7
:103C300082B005AB044653F8045B4069019300F081
:103C400039FF6069019A294601F0C0FE02B0BDE863
:103C5000304003B0704700BFC1EBC10100EB8100F1
:103C6000203000F0D3BD00BFF8B5154B0025044649
:103C700003600E46456029468560C5600561456163
:103C800085610577457700F12000174600F0B8FD03
:103C9000294604F13C0000F0B3FD251D4FF41653F6
:103CA000284631463A46A365FFF744FD43F659419D
:103CB0002846C0F600012246FFF7C8FD2046F8BDA1
:103CC000A87700080430FFF7D1BD00BF10B504305D
:103CD0000C46FFF7D7FD204610BD00BF0FB400B55E
:103CE00040F2082383B0C2F2000304AA186852F815
:103CF000041BC068019201F069FE012000F018F871
:103D000010B540F20823C2F2000382B004461868DE
:103D10000B4647F67401C0680092C0F600012246C7
:103D200000F0D0FF02B0BDE81040FCF789BC00BF36
:103D300038B5074C23680546986800F0BBFE20683C
:103D4000C06800F0B7FE05B9FEE7FCF779FCFBE7B9
:103D500008020020036810B5044623B900F024FBD4
:103D600060600120206010BD036810B504460BB9E7
:103D7000184610BD00F018FB6168401A10BD00BF66
:103D800010B58468FFF7F0FF201810BD08B5FFF7E5
:103D9000F7FF44F6D353C1F2620383FB0021C0173F
:103DA000C0EBA11008BD00BF10B50446FFF7DCFF53
:103DB000A36800211818A060216010BD10B504464A
:103DC00000F0F2FA00236060A36010BD002310B57C
:103DD0000446036043608360FFF7F0FF204610BD98
:103DE00038B50D46044600F001F96B1C09D00021DE
:103DF000204600F017F920460021BDE8384000F0C9
:103E00000DB938BD70B50D460446164600F0EEF803
:103E1000691C15D094F90030013312D066B92069BD
:103E2000A28802800121204600F0FCF820460021F3
:103E3000BDE8704000F0F2B8E168A3880B80F1E7BC
:103E400070BD044804493522FFF75AFF002EE6D022
:103E5000F2E700BFA8780008C07800080022FFF74A
:103E6000D1BF00BF10B5044600F0A4F92046BDE85C
:103E7000104000F04BBA00BF10B5044600F00EFA37
:103E800020B100F011FA04B1206010BDFFF7EAFF85
:103E9000F7E700BF431C10B5044619D091F9003074
:103EA000581C04D10FE011F90C3F5A1C0BD09C4256
:103EB000F9D12046896800F025F920460021BDE8A7
:103EC000104000F04FB90348BDE81040FFF706BFAF
:103ED00010BD00BF1C790008884208B50AD0421CFA
:103EE00007D0013106D00448FFF7F8FE4FF0FF304D
:103EF00008BD084608BD00BF3079000808B5431C5E
:103F00000DD091F900305A1C04D109E011F90C3F91
:103F10005A1C05D09842F9D14868411C00D008BD10
:103F20000248FFF7DBFE4FF0FF30F8E74479000866
:103F300038B5054600F038FA044600F035FA001BA3
:103F4000A842FAD338BD00BF4FF47A7303FB00F0E8
:103F5000FFF7EEBF07EE100ADFED047A27EE270A1F
:103F6000FDEEC00A10EE900AFFF7E2BF002474498C
:103F700070B500F03DFA0F4C0F4E206870B1056827
:103F800000F012FA281A00280CDC21683268C86890
:103F90002060002AF2D088689047EEE7BDE87040C4
:103FA00000F01CBA2368D3E90001BDE8704000F0BE
:103FB00009BA00BFAC060020B0060020431C10B5B3
:103FC000044609D02046002100F09CF804F00F04BC
:103FD000012000FA04F010BD024803492722FFF730
:103FE0008FFEEFE7087B00081C7B000870B50446D5
:103FF0004A1C0D46217010D0C1F3031000F032F8B6
:1040000006462846FFF7DAFF06F1100206F118030C
:104010001A366060A260E360266170BD90F900000E
:1040200000F0A0B838B503785AB2013205460C4604
:104030000DD01846012C40B204D00021BDE8384014
:1040400000F060B82146BDE8384000F05BB8034896
:1040500003494722FFF754FE2878EBE7A8780008C9
:104060001C7B000808B5072812D8DFE800F01622EC
:104070002F3C111111044FF46053C4F202034FF4AA
:10408000E0501A6B42F080011963C4F2020008BDCF
:104090001B48FFF723FE002008BD4FF46053C4F215
:1040A000020300201A6B42F001011963C4F20200FE
:1040B00008BD4FF46053C4F202034FF480601A6BE2
:1040C00042F002011963C4F2020008BD4FF46053CC
:1040D000C4F202034FF400601A6B42F0040119634A
:1040E000C4F2020008BD4FF46053C4F202034FF45F
:1040F00040601A6B42F008011963C4F2020008BD67
:10410000B07B000830B5431C87B005460C461CD078
:10411000C5F30310FFF7A6FF04F00F020E4B53F890
:10412000223005F00F01012505FA01F5C4F3021252
:104130000293C4F3C314032301A9019503920493CA
:104140000594FCF799FF07B030BD04480449592293
:10415000FFF7D6FDDCE700BF7C7B0008087B00088A
:10416000D47B0008421C38B504460D4617D0C4F372
:104170000310FFF777FF04F00F014B00022D0BD95E
:104180000025C268032404FA03F122EA0104C46092
:10419000C3681D43C56038BD05FA03F5F1E7034860
:1041A00003497E22FFF7ACFDE1E700BF087B000872
:1041B000D47B0008F0B5354B1C688DB00CB10DB048
:1041C000F0BD4FF46055C4F20205314E296C4FF436
:1041D000205241F080500127C4F200021F6032607B
:1041E0002864FDF7A7FB4FF46463C4F2472304215E
:1041F0001F6068461C60009106940297FCF746FB1E
:1042000018BBA86820F4F811A960AB6823F4F81271
:10421000AA60286F40F480712967FF2140F63C6353
:10422000C4F2472301221A601948F16000237F225B
:104230007360B26033617361B361FDF71BFC0028EA
:10424000BDD01448FFF74AFDB9E70C22684600923A
:10425000069402940597FCF719FB90B94FF460504F
:10426000C4F2020040F23711836823F4F81282602E
:10427000836823F4F8128260036F43F400720267CC
:10428000CCE70548FFF72AFDE8E700BFD406002089
:10429000B40600205C7C0008307C000840F2D46347
:1042A000C2F200031868704770B540F2B46490B071
:1042B000C2F200044FF42053C4F2000302A900220A
:1042C00020462360FDF73EFB01A900222046FDF7B2
:1042D0006FFB9DF80A209DF805509DF807109DF88A
:1042E00004609DF806409DF809300D9610A8013D28
:1042F00040F8242D9DF808200B9564310A940C9108
:104300000992089301F01EF810B070BDF0B589B0A5
:1043100008AB40F2B46443F81C0DC2F200044FF441
:104320002052C4F200021846226000F0AFFD076977
:10433000466983684168D0F80CE082698DF80D10F9
:104340000137643E8DF808208DF80AE08DF8097079
:104350008DF80B608DF80C300368002502A92A4601
:104360008DF80E302046402306958DF814300795C1
:10437000FDF7C8FB204603A92A46FDF789FC09B0D2
:10438000F0BD00BF064B186800B1704701211960ED
:104390004FF44062034BC4F200021A60FDF770BA9A
:1043A00014070020D806002008B5054B186808B986
:1043B000FFF7E8FF4FF44061C4F20001486A08BD0E
:1043C0001407002040F2D863C2F200031968486362
:1043D000CA6842F00200C860704700BF40F2D8636C
:1043E000C2F200031868C26822F00201C16070477F
:1043F00040F2D863C2F200036FF002021868026153
:10440000704700BF0268D0F810C04169F8B5136862
:1044100045688668C768D0F818E040F21874C2F2A0
:10442000000423F040002260002310600722204691
:10443000A360A3622362A1616362C4F804C0C4F8EC
:104440001CE067612661E262E560FCF7C5FD21685A
:10445000086840F040030B60F8BD00BF2DE9F04F45
:10446000884683B0044643499DF9306040469146F2
:104470001F46FFF743FD4049034648460193FFF7B7
:104480003DFD3E4905463846FFF738FD3C49834629
:104490003046FFF733FD294682460198FFF71CFDA1
:1044A000514605465846FFF717FD01462846FFF7D7
:1044B00013FD421C206056D04FF44051C4F201015C
:1044C00088424FF4605347D0C4F20003984233D07F
:1044D0004FF47052C4F20002904207D14FF4605082
:1044E000C4F20200056C45F40041016421494046D4
:1044F000FFF7D0FC48462049FFF7CCFC38461F495F
:10450000FFF7C8FC38230025A361731C6560A56014
:10451000E56084F81C9084F81D80A777E67714D0B6
:1045200030461749FFF7B6FC25616561204603B0A8
:10453000BDE8F04FFFF766BF4FF46053C4F20203CB
:104540001A6C42F480401864D0E74FF482724FF442
:10455000007022616061E9E7C4F202035D6C45F41A
:1045600080515964C2E7074807494D22FFF7C8FB4D
:104570002068A1E7847A000864790008AC79000813
:10458000CC7A0008847C00089C7C000810290CBFB1
:104590004FF400610021012A41601BD0022A15D08E
:1045A0003AB98260C26053B1002303614361FFF7EF
:1045B00029BF022201218260C160002BF4D14FF497
:1045C00082724FF4007102614161F0E78260002263
:1045D000C260E8E700218160C260E4E742F2BF7395
:1045E000C0F20903994245DDA1F5122241F67F236D
:1045F000A2F5F862C0F206039A4237D9A1F57422F7
:1046000044F23F23A2F51072C0F20F039A4237D949
:10461000A1F5F4124CF2BF63A2F59062C0F22D0333
:104620009A422AD94BF2C043CFF6B37344F63F32D5
:10463000CB18C0F24C02934225D94FF4D343CFF6A6
:1046400067734DF6BF02CB18C0F2A702934220D980
:1046500049F2C003CFF6BF6346F63F72C918C0F2F5
:104660004012914212D90023836101E0302383611B
:10467000FFF7C8BE38228261FAE720228261F7E79D
:1046800028218161F4E718238361F1E70822826120
:10469000EEE710218161EBE703689A689007FCD58B
:1046A00089B2D9609868C107FCD5024AD8681360FE
:1046B000704700BF1807002047F6005310B5C0F63A
:1046C0000003044603F13402083340F8042F23604A
:1046D00000F02EF82046FBF7DDFD204610BD00BFA0
:1046E000A0F10400FFF7E8BF10B50446FFF7E4FFB0
:1046F000204600F0A8F8204610BD00BFA0F104003D
:10470000FFF7F2BF094B10B50022044640F8043B06
:1047100000F044F847F60053C0F6000303F1080226
:10472000343384E80C00204610BD00BF1873000825
:10473000094A8368026053B108490A68824201D17C
:1047400006E01A4653689842FBD1416851607047B1
:1047500043680B60704700BF487D00086C0700206D
:104760000C4A836810B50446026053B10A480268D7
:10477000944201D10AE00A4651688C42FBD1636839
:104780005360204600F05FF8204610BD616801606C
:10479000F7E700BF487D00086C070020054B027357
:1047A000002203604260816019B103490B68086010
:1047B00043607047487D00086C0700200E4B70B5C1
:1047C0001C6806460D4614B912E0646884B1A368FB
:1047D00031462A461846002BF7D001F02EFE00285D
:1047E000F3D1A06801F021FEA842EED1204670BDB1
:1047F0000024204670BD00BF6C070020007B70477E
:104800000022426082610160704700BF08B5036802
:1048100001460BB1984708BD406810B18A6908315C
:10482000904708BD10B5002814BF04460124204657
:1048300000F070FC30B900F009F808B900F013F886
:104840008047F4E710BD00F06DBC0000024B186813
:10485000BFF35F8F704700BF700700200346084614
:10486000194600F00BB808B5062001F0E5FC012060
:1048700002F034FD00210A2201F080BE38B5054661
:1048800004480C46134620B1022029462246AFF3C5
:10489000008038BD00000000014B1868704700BF61
:1048A0000802002070B505460C4609B9002070BD0D
:1048B00018B183690BB900F04FF9204B9C4201D12C
:1048C0006C6808E01E4B9C4201D1AC6803E01D4BB4
:1048D0009C4208BFEC68B4F90C30002BE6D02846A7
:1048E000214600F039F8236B064633B12846216A89
:1048F00098470028B8BF4FF0FF36A3891B0603D5A1
:104900002846216900F098FE616B41B104F144032F
:10491000994202D0284600F08FFE00236363A16C09
:1049200021B1284600F088FE0023A36400F07EF940
:104930000023A38100F07BF9304670BD507D000854
:10494000707D0008907D0008024B01461868FFF753
:10495000A9BF00BF080200208A892DE9F041054661
:1049600010070C4657D44B68002B02DC0B6C002B55
:1049700018DDE66AB6B102F48052002392B22F68C5
:104980002B600AB1626D10E0216A28460123B0470E
:10499000411C024609D12B683BB11D2B01D0162BBF
:1049A00047D12F600020BDE8F081A3895B0705D5C2
:1049B0006368D21A636B0BB1236CD21AE66A216A60
:1049C00000232846B047461CA38905D12A681AB19E
:1049D0001D2A01D0162A19D100226260D904226949
:1049E000226004D5421C01D12B6803B96065616B5C
:1049F0002F600029D6D004F14403994202D0284602
:104A000000F01AFE00206063BDE8F08143F040032F
:104A1000A381BDE8F0810F69002FC3D093070E6812
:104A200008BF4B690F6018BF0023C7EB06088B60F7
:104A300012E0A38943F04003A3814FF0FF30BDE8AB
:104A4000F0812846216AA66A3A464346B0470028C4
:104A5000EFDD0744C0EB0808B8F1000FF1DCA1E777
:104A600038B50B6905460C46DBB118B183690BB943
:104A700000F072F80C4B9C4201D16C6808E00B4BC3
:104A80009C4201D1AC6803E0094B9C4208BFEC6832
:104A9000B4F90C302BB128462146BDE83840FFF769
:104AA0005BBF002038BD00BF507D0008707D00084E
:104AB000907D0008014620B9044B0549186800F0B4
:104AC000A1B9044B1868FFF7CBBF00BFB07D000849
:104AD000614A000808020020014900F093B900BFB4
:104AE000614A0008002310B50446036043608360F8
:104AF00081814366C28103614361836119465C30F1
:104B0000082200F041FB054B6362054BA362054B95
:104B1000E362054B2462236310BD00BF716300088C
:104B200097630008CF630008F363000870B568233B
:104B30004D1E5D430E4605F1740100F0C1FD0446B3
:104B400040B1002180E842000C30A06005F168020D
:104B500000F01AFB204670BD836910B5044633BBD4
:104B60008364C3640365124B124A1B6882629842D5
:104B700004BF0123836100F01FF86060204600F04D
:104B80001BF8A060204600F017F80421E060002226
:104B90006068FFF7A7FFA06809210122FFF7A2FFC5
:104BA000E06812210222FFF79DFF0123A36110BDDF
:104BB000B07D0008D94A0008F8B51B4B1E68B369E0
:104BC000074613B93046FFF7C7FF4836B468736825
:104BD000013B04D4B4F90C5075B16834F8E733687C
:104BE0002BB938460421FFF7A1FF306008B13668C1
:104BF000ECE70C233B60F8BD4FF6FF73E381012324
:104C0000A38165662560A560656025616561A56114
:104C100004F15C002946082200F0B6FA6563A5633A
:104C2000A564E5642046F8BDB07D00087047704774
:104C3000F7B50F46114601AA054601F003FF0646E7
:104C400008B9002029E02846FFF7B6FF04460028EF
:104C5000F7D028463946019A4FF4DB7301F0A6F9E4
:104C6000002806DA0025FFF7E1FFA581FFF7DFFF47
:104C7000E7E70B4B63620B4BA3620B4BE3620B4BFF
:104C80002363F305E081A681246205D528462146E9
:104C90000022022300F028F8204603B0F0BD00BF38
:104CA0007163000897630008CF630008F36300088E
:104CB0000A460349034608681946FFF7B9BF00BF13
:104CC000080200200EB403B5014603AB054853F8B3
:104CD000042B0068019300F071FD02B05DF804EB55
:104CE00003B070470802002000F000B82DE9F84337
:104CF0000C4690461E46054618B183690BB9FFF76E
:104D00002BFF3D4B9C4201D16C6808E03B4B9C4221
:104D100001D1AC6803E03A4B9C4208BFEC68A38920
:104D200003F48473B3F5847F03D128462146FFF74B
:104D300097FEE76A0FB91D232BE0012E04D0022E47
:104D40002BD056B3162324E028462146FFF788FED1
:104D5000A28902F4805292B20AB1606D05E0216A24
:104D600028463346B847411C14D0A3895A0706D5B4
:104D70006368C01A636B4BB1236CC01A06E01B0753
:104D800004D5236813B122699B1A18448044002675
:104D900003E02B604FF0FF392BE023691BB9284655
:104DA000214600F069F928462146FFF759FE814661
:104DB0000028EFD12846216A42463346B8470130E1
:104DC000E8D0616B41B104F14403994202D0284616
:104DD00000F032FC0023636323692360A389002170
:104DE00023F402636160A38104F15C00082200F0F7
:104DF000CBF94846BDE8F883507D0008707D000877
:104E0000907D00082DE9F8438046894600F148046A
:104E1000002694B1A5686768013F0CD4AB89012BCB
:104E200007D9B5F90E30013303D040462946C847AB
:104E300006436835F0E72468EBE73046BDE8F883C1
:104E400070B50E4B0E4CE41AA41000251E46A54268
:104E500004D056F8253098470135F8E702F040FABB
:104E6000084C094BE41AA41000251E46A54204D0A4
:104E700056F8253098470135F8E770BD50020020FC
:104E800050020020580200205002002038B5074B85
:104E90001C68E36B05461BB9242000F03BF9E06376
:104EA0002846E16BBDE8384000F002B80802002057
:104EB0002DE9F0410C46804601F00EFE21460746E2
:104EC000404601F00DFE466906F26C76B3070446D3
:104ED00005D1642296FBF2F302FB13634BB94FF446
:104EE000C87596FBF5F305FB1365B5FA85F35B0909
:104EF00000E001235E4A302505FB032501F06EFC2E
:104F00005C4B1B68F3B17B689E4205D13968D8F8C9
:104F10000030FA6941B90AE0304601F0B9FB0028D7
:104F2000F4D14FF0FF330DE0934208DB01E09342F0
:104F300007DABA6B9342ACBF0023012302E00023DF
:104F400000E001232362236A012B0CBFF96B396A4D
:104F50004FF461633C2091FBF3F603FB1613616889
:104F600093FBF0F200FB12302368891AA26861609B
:104F70001B1A921B3B2B2360A26003DD0131616091
:104F80003C3B04E0002B03DA013961603C332360D1
:104F900063683B2B03DD0132A2603C3B04E0002B45
:104FA00003DA013AA2603C336360A368172B22DD69
:104FB000E2690132E261A2690132062AC8BF002219
:104FC000A261E268183B0132A3602369E26055F8F0
:104FD00023108A4246DD01330C2B0CBF6369236129
:104FE000A2EB0102E26001BF013300222261636192
:104FF00008BFE26136E0002B34DAE269013AE2618F
:10500000A269013A48BF0622A261E2681833013A58
:10501000E260A36032BB2369013B01D423611DE040
:105020000B23236163695A1E12F0030F626103F2BE
:105030006B7305D1642193FBF1F201FB12324AB983
:105040004FF4C87193FBF1F201FB1233B3FA83F30F
:105050005B0900E0012303F5B673E361236955F8AA
:105060002330E36001F0BBFB2046BDE8F08100BFC8
:10507000147E00087C070020F0B58B899D0791B055
:1050800006460C4626D4B1F90E10002909DAA38988
:1050900013F0800F4FF0000514BF40274FF48067D6
:1050A0000DE001AA01F006FD0028F0DB029D05F4E9
:1050B0007045A5F500514D424D414FF48067304693
:1050C000394600F0FDFA60B9A3899A051DD443F072
:1050D0000203A38104F14703236023610123636179
:1050E00013E00B4BB362A389206043F08003A381DC
:1050F000206167614DB13046B4F90E1001F06CFDCE
:1051000018B1A38943F00103A38111B0F0BD00BF22
:10511000D94A0008024B0146186800F0D1BA00BF16
:1051200008020020024B0146186800F085BA00BF53
:105130000802002010B5C9B202449042034606D0CE
:105140001C788C4200F10100F7D1184610BD0020F8
:1051500010BD10B50A44441E914208D014F8013F16
:105160000878834201D0181A10BD0131F4E70020FD
:1051700010BD10B5431E0A44914204D011F8014BF2
:1051800003F8014FF8E710BD02440346934202D0F2
:1051900003F8011BFAE7704737B501683B2904465D
:1051A00011D93C22684601F039FC019A6168009BE4
:1051B000002A0B446360BBBF3C3203F1FF33226023
:1051C0002260B8BF636061683B2911D93C22684600
:1051D00001F024FC019AA168009B002A0B44A36003
:1051E000BBBF3C3203F1FF3362606260B8BFA360B3
:1051F000A168172911D91822684601F00FFC019AFD
:10520000E168009B002A0B44E360BBBF183203F146
:10521000FF33A260A260B8BFE36021690B2911D9F6
:105220000C22684601F0FAFB019A6169009B002A92
:105230000B446361BBBF0C3203F1FF332261226177
:10524000B8BF636163699D0712D1642193FBF1F2DA
:1052500001FB123272B903F26C734FF4C87193FB05
:10526000F1F201FB1233002B14BF1C231D2302E0BB
:105270001C2300E01D23E268002A37DCE568002DCE
:105280005CDC21690139216101311CD16369591E3E
:105290000B2288076161226112D1642291FBF2F036
:1052A00002FB101171B903F26B734FF4C87293FBD8
:1052B000F2F102FB1133002B14BF1C231D2302E06B
:1052C0001C2300E01D232269012A1ABF1C4951F842
:1052D00022201A462A44E260D0E799422EDD184681
:1052E0000132091A0C2AE160226109D02269E168C1
:1052F000012AF2D0124850F822008142F0DC1DE071
:10530000636900215A1C21619107626112D16420F6
:1053100092FBF0F100FB112272B903F26D734FF4AE
:10532000C87193FBF1F201FB1233002B14BF1C2355
:105330001D23DBE71C23D9E71D23D7E703B030BDCE
:10534000E47D00082DE9F047804601F0C5FB814669
:105350004046FFF721FF98E80C003C2000FB0323A8
:10536000D8F80820D8F80C404FF4616707FB0230EA
:10537000D8F81030AD4A52F82320013C012B1444D8
:10538000D8F8143011DD9A070FD1642193FBF1F2A4
:1053900001FB123242B903F26C754FF4C87295FBEF
:1053A000F2F102FB115202B9013403F51C52103222
:1053B00044F620618A42C8F81C401E4600F2318142
:1053C000462B21DD46218F0714D1642591FBF5F290
:1053D00005FB12128AB901F26C774FF4C87297FB81
:1053E000F2F502FB1572002A40F26D1208BF4FF46D
:1053F000B77204E040F26D1201E04FF4B772013170
:1054000099421444DFD143E042D0452199421EDD48
:105410008E0714D1642591FBF5F205FB12128AB9AF
:1054200001F26C764FF4C87296FBF2F502FB15623E
:10543000002A40F26D1208BF4FF4B77204E040F248
:105440006D1201E04FF4B772A41A0139DEE7452B63
:10545000A8BF45239D071E4614D1642293FBF2F397
:1054600002FB13638BB906F26C714FF4C87391FBA6
:10547000F3F203FB1213002B40F26D1308BF4FF43D
:10548000B77304E040F26D1301E04FF4B773E41A10
:10549000674F07FB040701F0A1F9664B1D68002D5B
:1054A00000F0AA80D8F82030D8F81400012BA8BF4B
:1054B00001239A46D9F8043000F26C7098420DD15D
:1054C000D9F83820D9F82030D9F83C00D9F81C1088
:1054D000D51AAF42A1EB000105DA07E001F0D8F8D8
:1054E0000028EDD17BE0121A974278DBD9F8002032
:1054F00012B18F427BDB01E08F4207DAAF42ACBFD3
:1055000000250125BAF1000F04DA69E0BAF1000FB5
:1055100068DB012585EA0A0ABAF1010F60D11B1A7E
:1055200005B95B42D8F80020D8F80CA01A44C8F896
:10553000002040461F44FFF72FFED8F80C30B3EB95
:105540000A034DD0012B03DC981CD8BF012301E0D6
:105550004FF0FF33D8F81C201C449B181DD5731E38
:10556000990714D1642193FBF1F201FB12338BB93B
:1055700006F26B764FF4C87296FBF2F302FB1366E9
:10558000002E40F26D1318BF4FF4B67324E04FF4B1
:10559000B67321E040F26D131EE0B20714D164210E
:1055A00096FBF1F201FB12628AB906F26C764FF4B7
:1055B000C87196FBF1F201FB1266002E40F26D12EB
:1055C00008BF4FF4B77204E040F26D1201E04FF4EF
:1055D000B7729A42D8BF9B1AC8F81C3000E05546F3
:1055E000012D09D1D9F83C0001253E1807E0BAF198
:1055F000000F4FF000058DDAD9F820003E1801F0B9
:10560000EEF80434072394FBF3F3C3EBC303E41A6B
:1056100048BF0734C8F82050C8F818403046BDE8E5
:10562000F0874FF0FF30BDE8F08700BFB47D000881
:10563000805101007C07002030B500293DD051F891
:10564000042C0B1F1D49002AB8BF9B180A680C4682
:1056500012B95A600B6030BD93420DD219685818C8
:10566000904201BF5A5852181A6042685A6023602B
:1056700030BD994203D80A4651680029F9D114680F
:1056800015199D420AD11B682344D0188842136023
:1056900013D10868034413604B680DE002D90C2352
:1056A000036030BD1C681819884204BF0868496847
:1056B000596004BF00191860536030BD780700209E
:1056C00070B5CC1C24F0030408340C2C38BF0C2417
:1056D000002C064603DA0C233360002070BD8C4298
:1056E000F9D3204A136810461946A1B10A68121B63
:1056F0000ED40B2A03D90A608B188C501FE08B4202
:105700000DBF5A684A685A60026018BF0B4616E01F
:105710000B464968E9E7144D2B681BB9304600F089
:1057200091FC28603046214600F08CFC421C034668
:10573000D1D0C51C25F0030585420AD11C6003F1B8
:105740000B001A1D20F00700821A0AD0514299500E
:1057500070BD3046E91A00F075FC0130BBD02B4615
:10576000ECE770BD78070020740700209368013BC8
:10577000002B10B5936009DA9469A34202DBCBB227
:105780000A2B03D1BDE8104001F066B81368581C1D
:1057900010601970C8B210BDF8B506460F46144621
:1057A000D518AC4208D0304614F8011B3A46FFF732
:1057B000DDFF431CF5D100E00020F8BD2DE9F043EA
:1057C0009DB00D4690460393064618B183690BB908
:1057D000FFF7C2F9754B9D4201D1756808E0744B23
:1057E0009D4201D1B56803E0724B9D4208BFF56848
:1057F000AB891C070AD52B6943B1002309932023E9
:105800008DF8293030238DF82A3041E03046294682
:1058100001F088F80028F0D04FF0FF30C2E0039A82
:10582000111D12680391002ABBBF524243F00203CC
:1058300007920792B8BF0493013423782E2B7BD0B4
:10584000DFF88081217840460322FFF773FC38B1EE
:10585000049AC8EB000040238340134304930134AF
:10586000217855488DF82810062204F10108FFF729
:1058700061FC002800F08580504B002B78D1039B01
:10588000073323F0070308330393099B3B44099331
:1058900043461C4613F8012B1AB9B4EB08090ED085
:1058A00002E0252AF5D1F8E73046294642464B4624
:1058B000FFF772FF013070D0099B4B4409932378A6
:1058C000002B6AD000234FF0FF3204930793059218
:1058D00006938DF853301A9304F101084446DFF81B
:1058E000E890217848460522FFF724FC08F10108DA
:1058F000049B30B1C9EB00000122824013430493A2
:10590000ECE7D80644BF20228DF85320190744BF86
:105910002B228DF8532022782A2A80D007992346FB
:105920001C4601332278303A092A03D80A2000FBAA
:105930000121F5E7079180E763782A2B0AD1039BC1
:105940001A1D1B680392002BB8BF4FF0FF330234BF
:10595000059375E7611C00220C4601312378303B2A
:10596000092B03D80A2000FB0232F5E7059267E70E
:1059700003AB0093304604A92A46114BAFF30080D5
:1059800007E003AB0093304604A92A460C4B00F015
:10599000A1F8421C07467FF478AFAB895B063FF560
:1059A0003BAF09981DB0BDE8F08300BF507D0008F3
:1059B000707D0008907D00087E7E000800000000D9
:1059C000995700087A7E0008747E000830B51346A7
:1059D000044A05460C46106829462246BDE8304078
:1059E000FFF7ECBE080200202DE9F84391461F4660
:1059F0008A680B69DDF820809342B8BF1346C9F866
:105A0000003091F8432006460C4612B10133C9F824
:105A100000302368990642BFD9F800300233C9F834
:105A20000030256815F006051CD094F84330226834
:105A3000003318BF012392061FD5E1185A1C3020ED
:105A400081F84300224494F8451082F84310023351
:105A500013E03046394604F119020123C0470130F2
:105A600007D00135E368D9F800209B1A9D42F0DB8E
:105A7000DBE74FF0FF30BDE8F8833046394604F1EC
:105A80004302C0470130F4D02268D9F80050E368DF
:105A900002F00602042A08BF5D1B2269A3680CBF3E
:105AA00025EAE57500259342C4BF9B1AED184FF017
:105AB0000009A9450ADA3046394604F11A020123E1
:105AC000C0470130D5D009F10109F2E70020BDE857
:105AD000F88300002DE9FF410C461746227E6E2A0E
